{
	"data": {
		"bytecode": {
			"linkReferences": {},
			"object": "608060405234801561001057600080fd5b5033600160006101000a81548173ffffffffffffffffffffffffffffffffffffffff021916908373ffffffffffffffffffffffffffffffffffffffff160217905550600160009054906101000a900473ffffffffffffffffffffffffffffffffffffffff1673ffffffffffffffffffffffffffffffffffffffff167fce241d7ca1f669fee44b6fc00b8eba2df3bb514eed0f6f668f8f89096e81ed9460405160405180910390a2612f9e806100c66000396000f3fe608060405260043610620001165760003560e01c806380eb6de611620000a3578063bd9c6d55116200006d578063bd9c6d551462000363578063bf7e214f1462000383578063c4d66de814620003b3578063c6d0ff0f14620003e1578063cade88f8146200040f5762000116565b806380eb6de614620002b75780638da5cb5b14620002d75780638f4ffcb11462000307578063b6bb39b814620003355762000116565b80633789571311620000e55780633789571314620001ff5780635f564682146200022d5780636ae7f94f146200025b5780637a9e5e4b14620002895762000116565b806313af4035146200011b5780631485d29714620001495780632c56ef59146200018d5780632e41933314620001d1575b600080fd5b3480156200012857600080fd5b5062000147600480360381019062000141919062001293565b6200043f565b005b3480156200015657600080fd5b506200017560048036038101906200016f919062001300565b6200055a565b604051620001849190620014bf565b60405180910390f35b3480156200019a57600080fd5b50620001b96004803603810190620001b3919062001293565b620005f1565b604051620001c89190620014f9565b60405180910390f35b348015620001de57600080fd5b50620001fd6004803603810190620001f7919062001547565b62000611565b005b3480156200020c57600080fd5b506200022b600480360381019062000225919062001770565b620006b3565b005b3480156200023a57600080fd5b50620002596004803603810190620002539190620018af565b620007bc565b005b3480156200026857600080fd5b506200028760048036038101906200028191906200192a565b62000838565b005b3480156200029657600080fd5b50620002b56004803603810190620002af9190620019cb565b6200090f565b005b620002d56004803603810190620002cf9190620019fd565b62000a27565b005b348015620002e457600080fd5b50620002ef62000bde565b604051620002fe919062001a89565b60405180910390f35b3480156200031457600080fd5b506200033360048036038101906200032d919062001aa6565b62000c04565b005b3480156200034257600080fd5b506200036160048036038101906200035b919062001293565b62000c0a565b005b6200038160048036038101906200037b919062001b37565b62000cfa565b005b3480156200039057600080fd5b506200039b62000d9c565b604051620003aa919062001c1d565b60405180910390f35b348015620003c057600080fd5b50620003df6004803603810190620003d9919062001293565b62000dc0565b005b348015620003ee57600080fd5b506200040d6004803603810190620004079190620018af565b62000e6c565b005b3480156200041c57600080fd5b506200042762000f72565b60405162000436919062001a89565b60405180910390f35b6200046f336000357fffffffff000000000000000000000000000000000000000000000000000000001662000f98565b620004b1576040517f08c379a0000000000000000000000000000000000000000000000000000000008152600401620004a89062001c9b565b60405180910390fd5b80600160006101000a81548173ffffffffffffffffffffffffffffffffffffffff021916908373ffffffffffffffffffffffffffffffffffffffff160217905550600160009054906101000a900473ffffffffffffffffffffffffffffffffffffffff1673ffffffffffffffffffffffffffffffffffffffff167fce241d7ca1f669fee44b6fc00b8eba2df3bb514eed0f6f668f8f89096e81ed9460405160405180910390a250565b620005646200114b565b60008390508073ffffffffffffffffffffffffffffffffffffffff16637a86983f846040518263ffffffff1660e01b8152600401620005a4919062001cce565b60a060405180830381865afa158015620005c2573d6000803e3d6000fd5b505050506040513d601f19601f82011682018060405250810190620005e8919062001e94565b91505092915050565b60036020528060005260406000206000915054906101000a900460ff1681565b600060405180604001604052806001600381111562000635576200063462001358565b5b81526020017394f6f02f909ca40ded5cbed1cb4cab48753f73a573ffffffffffffffffffffffffffffffffffffffff16815250905060006040518060400160405280838152602001613039815250905060006040518060400160405280838152602001858152509050620006ab86868362000838565b505050505050565b600360003373ffffffffffffffffffffffffffffffffffffffff1673ffffffffffffffffffffffffffffffffffffffff16815260200190815260200160002060009054906101000a900460ff1662000742576040517f08c379a0000000000000000000000000000000000000000000000000000000008152600401620007399062001f16565b60405180910390fd5b8273ffffffffffffffffffffffffffffffffffffffff168473ffffffffffffffffffffffffffffffffffffffff167f9a99d4ff19ca5b2fe32af24354c2fc8ab3724e933b824241f751c986afd90e2a84846200079d62001143565b604051620007ae9392919062001f7c565b60405180910390a350505050565b60008390508073ffffffffffffffffffffffffffffffffffffffff166355accb3684846040518363ffffffff1660e01b8152600401620007fe92919062002042565b600060405180830381600087803b1580156200081957600080fd5b505af11580156200082e573d6000803e3d6000fd5b5050505050505050565b60008390508073ffffffffffffffffffffffffffffffffffffffff1663b9d86c2384846040518363ffffffff1660e01b81526004016200087a92919062002076565b600060405180830381600087803b1580156200089557600080fd5b505af1158015620008aa573d6000803e3d6000fd5b505050508373ffffffffffffffffffffffffffffffffffffffff167fdf5dbff072c49b2d650b109d22830c44dbaf30f9dbaa691763d386383d96aabe83620008f162001143565b60405162000901929190620020a3565b60405180910390a250505050565b6200093f336000357fffffffff000000000000000000000000000000000000000000000000000000001662000f98565b62000981576040517f08c379a0000000000000000000000000000000000000000000000000000000008152600401620009789062001c9b565b60405180910390fd5b806000806101000a81548173ffffffffffffffffffffffffffffffffffffffff021916908373ffffffffffffffffffffffffffffffffffffffff16021790555060008054906101000a900473ffffffffffffffffffffffffffffffffffffffff1673ffffffffffffffffffffffffffffffffffffffff167f1abebea81bfa2637f28358c371278fb15ede7ea8dd28d2e03b112ff6d936ada460405160405180910390a250565b600073ffffffffffffffffffffffffffffffffffffffff16600260009054906101000a900473ffffffffffffffffffffffffffffffffffffffff1673ffffffffffffffffffffffffffffffffffffffff160362000abb576040517f08c379a000000000000000000000000000000000000000000000000000000000815260040162000ab29062002146565b60405180910390fd5b600060405162000acb9062001183565b604051809103906000f08015801562000ae8573d6000803e3d6000fd5b50905060008190508473ffffffffffffffffffffffffffffffffffffffff168273ffffffffffffffffffffffffffffffffffffffff167f68f9dd5be4878a74ed3c429422cc4e382f97602b85517bcd82bf84c461e1a26b868662000b4b62001143565b8673ffffffffffffffffffffffffffffffffffffffff166354fd4d506040518163ffffffff1660e01b8152600401602060405180830381865afa15801562000b97573d6000803e3d6000fd5b505050506040513d601f19601f8201168201806040525081019062000bbd919062002168565b60405162000bcf94939291906200219a565b60405180910390a35050505050565b600160009054906101000a900473ffffffffffffffffffffffffffffffffffffffff1681565b50505050565b62000c3a336000357fffffffff000000000000000000000000000000000000000000000000000000001662000f98565b62000c7c576040517f08c379a000000000000000000000000000000000000000000000000000000000815260040162000c739062001c9b565b60405180910390fd5b600073ffffffffffffffffffffffffffffffffffffffff168173ffffffffffffffffffffffffffffffffffffffff160362000cb657600080fd5b80600260006101000a81548173ffffffffffffffffffffffffffffffffffffffff021916908373ffffffffffffffffffffffffffffffffffffffff16021790555050565b600060405180604001604052806001600381111562000d1e5762000d1d62001358565b5b81526020017394f6f02f909ca40ded5cbed1cb4cab48753f73a573ffffffffffffffffffffffffffffffffffffffff1681525090506000604051806040016040528083815260200161303981525090506000604051806040016040528083815260200186815250905062000d9486828662000a27565b505050505050565b60008054906101000a900473ffffffffffffffffffffffffffffffffffffffff1681565b600073ffffffffffffffffffffffffffffffffffffffff168173ffffffffffffffffffffffffffffffffffffffff160362000dfa57600080fd5b3073ffffffffffffffffffffffffffffffffffffffff1663b6bb39b8826040518263ffffffff1660e01b815260040162000e35919062001a89565b600060405180830381600087803b15801562000e5057600080fd5b505af115801562000e65573d6000803e3d6000fd5b5050505050565b600360003373ffffffffffffffffffffffffffffffffffffffff1673ffffffffffffffffffffffffffffffffffffffff16815260200190815260200160002060009054906101000a900460ff1662000efb576040517f08c379a000000000000000000000000000000000000000000000000000000000815260040162000ef29062001f16565b60405180910390fd5b8173ffffffffffffffffffffffffffffffffffffffff168373ffffffffffffffffffffffffffffffffffffffff167fde57aa555387fdf330286423816d9515de73e315e65d70556363de171e0a4e568362000f5562001143565b60405162000f65929190620021ee565b60405180910390a3505050565b600260009054906101000a900473ffffffffffffffffffffffffffffffffffffffff1681565b60003073ffffffffffffffffffffffffffffffffffffffff168373ffffffffffffffffffffffffffffffffffffffff160362000fd857600190506200113d565b600160009054906101000a900473ffffffffffffffffffffffffffffffffffffffff1673ffffffffffffffffffffffffffffffffffffffff168373ffffffffffffffffffffffffffffffffffffffff16036200103857600190506200113d565b600073ffffffffffffffffffffffffffffffffffffffff1660008054906101000a900473ffffffffffffffffffffffffffffffffffffffff1673ffffffffffffffffffffffffffffffffffffffff16036200109757600090506200113d565b60008054906101000a900473ffffffffffffffffffffffffffffffffffffffff1673ffffffffffffffffffffffffffffffffffffffff1663b70096138430856040518463ffffffff1660e01b8152600401620010f6939291906200225f565b602060405180830381865afa15801562001114573d6000803e3d6000fd5b505050506040513d601f19601f820116820180604052508101906200113a9190620022cd565b90505b92915050565b600043905090565b6040518060400160405280600073ffffffffffffffffffffffffffffffffffffffff1681526020016200117d62001191565b81525090565b610c69806200230083390190565b6040518060400160405280620011a6620011b3565b8152602001600081525090565b6040518060400160405280620011c8620011d5565b8152602001600081525090565b604051806040016040528060006003811115620011f757620011f662001358565b5b8152602001600073ffffffffffffffffffffffffffffffffffffffff1681525090565b6000604051905090565b600080fd5b600080fd5b600073ffffffffffffffffffffffffffffffffffffffff82169050919050565b60006200125b826200122e565b9050919050565b6200126d816200124e565b81146200127957600080fd5b50565b6000813590506200128d8162001262565b92915050565b600060208284031215620012ac57620012ab62001224565b5b6000620012bc848285016200127c565b91505092915050565b6000819050919050565b620012da81620012c5565b8114620012e657600080fd5b50565b600081359050620012fa81620012cf565b92915050565b600080604083850312156200131a576200131962001224565b5b60006200132a858286016200127c565b92505060206200133d85828601620012e9565b9150509250929050565b62001352816200124e565b82525050565b7f4e487b7100000000000000000000000000000000000000000000000000000000600052602160045260246000fd5b600481106200139b576200139a62001358565b5b50565b6000819050620013ae8262001387565b919050565b6000620013c0826200139e565b9050919050565b620013d281620013b3565b82525050565b604082016000820151620013f06000850182620013c7565b50602082015162001405602085018262001347565b50505050565b6000819050919050565b62001420816200140b565b82525050565b6060820160008201516200143e6000850182620013d8565b50602082015162001453604085018262001415565b50505050565b60808201600082015162001471600085018262001426565b50602082015162001486606085018262001415565b50505050565b60a082016000820151620014a4600085018262001347565b506020820151620014b9602085018262001459565b50505050565b600060a082019050620014d660008301846200148c565b92915050565b60008115159050919050565b620014f381620014dc565b82525050565b6000602082019050620015106000830184620014e8565b92915050565b62001521816200140b565b81146200152d57600080fd5b50565b600081359050620015418162001516565b92915050565b60008060006060848603121562001563576200156262001224565b5b600062001573868287016200127c565b935050602062001586868287016200127c565b9250506040620015998682870162001530565b9150509250925092565b600080fd5b6000601f19601f8301169050919050565b7f4e487b7100000000000000000000000000000000000000000000000000000000600052604160045260246000fd5b620015f382620015a8565b810181811067ffffffffffffffff82111715620016155762001614620015b9565b5b80604052505050565b60006200162a6200121a565b9050620016388282620015e8565b919050565b600481106200164b57600080fd5b50565b6000813590506200165f816200163d565b92915050565b6000604082840312156200167e576200167d620015a3565b5b6200168a60406200161e565b905060006200169c848285016200164e565b6000830152506020620016b2848285016200127c565b60208301525092915050565b600060608284031215620016d757620016d6620015a3565b5b620016e360406200161e565b90506000620016f58482850162001665565b60008301525060406200170b8482850162001530565b60208301525092915050565b60006080828403121562001730576200172f620015a3565b5b6200173c60406200161e565b905060006200174e84828501620016be565b6000830152506060620017648482850162001530565b60208301525092915050565b60008060008060e085870312156200178d576200178c62001224565b5b60006200179d878288016200127c565b9450506020620017b0878288016200127c565b9350506040620017c387828801620012e9565b9250506060620017d68782880162001717565b91505092959194509250565b600080fd5b600080fd5b600067ffffffffffffffff8211156200180a5762001809620015b9565b5b6200181582620015a8565b9050602081019050919050565b82818337600083830152505050565b6000620018486200184284620017ec565b6200161e565b905082815260208101848484011115620018675762001866620017e7565b5b6200187484828562001822565b509392505050565b600082601f830112620018945762001893620017e2565b5b8135620018a684826020860162001831565b91505092915050565b600080600060608486031215620018cb57620018ca62001224565b5b6000620018db868287016200127c565b9350506020620018ee868287016200127c565b925050604084013567ffffffffffffffff81111562001912576200191162001229565b5b62001920868287016200187c565b9150509250925092565b600080600060c0848603121562001946576200194562001224565b5b600062001956868287016200127c565b935050602062001969868287016200127c565b92505060406200197c8682870162001717565b9150509250925092565b600062001993826200124e565b9050919050565b620019a58162001986565b8114620019b157600080fd5b50565b600081359050620019c5816200199a565b92915050565b600060208284031215620019e457620019e362001224565b5b6000620019f484828501620019b4565b91505092915050565b600080600060c0848603121562001a195762001a1862001224565b5b600062001a29868287016200127c565b935050602062001a3c8682870162001717565b92505060a084013567ffffffffffffffff81111562001a605762001a5f62001229565b5b62001a6e868287016200187c565b9150509250925092565b62001a83816200124e565b82525050565b600060208201905062001aa0600083018462001a78565b92915050565b6000806000806080858703121562001ac35762001ac262001224565b5b600062001ad3878288016200127c565b945050602062001ae68782880162001530565b935050604062001af9878288016200127c565b925050606085013567ffffffffffffffff81111562001b1d5762001b1c62001229565b5b62001b2b878288016200187c565b91505092959194509250565b60008060006060848603121562001b535762001b5262001224565b5b600062001b63868287016200127c565b935050602062001b768682870162001530565b925050604084013567ffffffffffffffff81111562001b9a5762001b9962001229565b5b62001ba8868287016200187c565b9150509250925092565b6000819050919050565b600062001bdd62001bd762001bd1846200122e565b62001bb2565b6200122e565b9050919050565b600062001bf18262001bbc565b9050919050565b600062001c058262001be4565b9050919050565b62001c178162001bf8565b82525050565b600060208201905062001c34600083018462001c0c565b92915050565b600082825260208201905092915050565b7f64732d617574682d756e617574686f72697a6564000000000000000000000000600082015250565b600062001c8360148362001c3a565b915062001c908262001c4b565b602082019050919050565b6000602082019050818103600083015262001cb68162001c74565b9050919050565b62001cc881620012c5565b82525050565b600060208201905062001ce5600083018462001cbd565b92915050565b60008151905062001cfc8162001262565b92915050565b60008151905062001d13816200163d565b92915050565b60006040828403121562001d325762001d31620015a3565b5b62001d3e60406200161e565b9050600062001d508482850162001d02565b600083015250602062001d668482850162001ceb565b60208301525092915050565b60008151905062001d838162001516565b92915050565b60006060828403121562001da25762001da1620015a3565b5b62001dae60406200161e565b9050600062001dc08482850162001d19565b600083015250604062001dd68482850162001d72565b60208301525092915050565b60006080828403121562001dfb5762001dfa620015a3565b5b62001e0760406200161e565b9050600062001e198482850162001d89565b600083015250606062001e2f8482850162001d72565b60208301525092915050565b600060a0828403121562001e545762001e53620015a3565b5b62001e6060406200161e565b9050600062001e728482850162001ceb565b600083015250602062001e888482850162001de2565b60208301525092915050565b600060a0828403121562001ead5762001eac62001224565b5b600062001ebd8482850162001e3b565b91505092915050565b7f4e6f7420612064656d616e6420636f6e74726163742061646472657373000000600082015250565b600062001efe601d8362001c3a565b915062001f0b8262001ec6565b602082019050919050565b6000602082019050818103600083015262001f318162001eef565b9050919050565b60808201600082015162001f50600085018262001426565b50602082015162001f65606085018262001415565b50505050565b62001f76816200140b565b82525050565b600060c08201905062001f93600083018662001cbd565b62001fa2602083018562001f38565b62001fb160a083018462001f6b565b949350505050565b600081519050919050565b600082825260208201905092915050565b60005b8381101562001ff557808201518184015260208101905062001fd8565b60008484015250505050565b60006200200e8262001fb9565b6200201a818562001fc4565b93506200202c81856020860162001fd5565b6200203781620015a8565b840191505092915050565b600060408201905062002059600083018562001a78565b81810360208301526200206d818462002001565b90509392505050565b600060a0820190506200208d600083018562001a78565b6200209c602083018462001f38565b9392505050565b600060a082019050620020ba600083018562001f38565b620020c9608083018462001f6b565b9392505050565b7f64656d616e6450726f7879546172676574206d7573742062652073657420667260008201527f6f6d2043434323696e697469616c697a65206669727374000000000000000000602082015250565b60006200212e60378362001c3a565b91506200213b82620020d0565b604082019050919050565b6000602082019050818103600083015262002161816200211f565b9050919050565b60006020828403121562002181576200218062001224565b5b6000620021918482850162001d72565b91505092915050565b600060e082019050620021b1600083018762001f38565b8181036080830152620021c5818662002001565b9050620021d660a083018562001f6b565b620021e560c083018462001f6b565b95945050505050565b600060408201905081810360008301526200220a818562002001565b90506200221b602083018462001f6b565b9392505050565b60007fffffffff0000000000000000000000000000000000000000000000000000000082169050919050565b620022598162002222565b82525050565b600060608201905062002276600083018662001a78565b62002285602083018562001a78565b6200229460408301846200224e565b949350505050565b620022a781620014dc565b8114620022b357600080fd5b50565b600081519050620022c7816200229c565b92915050565b600060208284031215620022e657620022e562001224565b5b6000620022f684828501620022b6565b9150509291505056fe60806040527361b241d27a1ab30c3e268e264d231f8e0ab3a4e6600260006101000a81548173ffffffffffffffffffffffffffffffffffffffff021916908373ffffffffffffffffffffffffffffffffffffffff16021790555034801561006557600080fd5b5033600160006101000a81548173ffffffffffffffffffffffffffffffffffffffff021916908373ffffffffffffffffffffffffffffffffffffffff160217905550600160009054906101000a900473ffffffffffffffffffffffffffffffffffffffff1673ffffffffffffffffffffffffffffffffffffffff167fce241d7ca1f669fee44b6fc00b8eba2df3bb514eed0f6f668f8f89096e81ed9460405160405180910390a2610b4e8061011b6000396000f3fe6080604052600436106100595760003560e01c806313af40351461010c578063776d1a01146101355780637a9e5e4b1461015e5780638da5cb5b14610187578063bf7e214f146101b2578063d4b83992146101dd57610099565b36610099577f88a5966d370b9919b20f3e2c13ff65706f196a4e32cc2c12bf57088f88525874333460405161008f9291906107d1565b60405180910390a1005b61010a600260009054906101000a900473ffffffffffffffffffffffffffffffffffffffff166000368080601f016020809104026020016040519081016040528093929190818152602001838380828437600081840152601f19601f82011690508083019250505050505050610208565b005b34801561011857600080fd5b50610133600480360381019061012e919061082b565b61027a565b005b34801561014157600080fd5b5061015c6004803603810190610157919061082b565b610390565b005b34801561016a57600080fd5b5061018560048036038101906101809190610896565b610441565b005b34801561019357600080fd5b5061019c610554565b6040516101a991906108c3565b60405180910390f35b3480156101be57600080fd5b506101c761057a565b6040516101d4919061093d565b60405180910390f35b3480156101e957600080fd5b506101f261059e565b6040516101ff91906108c3565b60405180910390f35b610211826105c4565b610250576040517f08c379a0000000000000000000000000000000000000000000000000000000008152600401610247906109b5565b60405180910390fd5b600080825160208401856127105a03f43d604051816000823e8260008114610276578282f35b8282fd5b6102a8336000357fffffffff00000000000000000000000000000000000000000000000000000000166105d7565b6102e7576040517f08c379a00000000000000000000000000000000000000000000000000000000081526004016102de90610a21565b60405180910390fd5b80600160006101000a81548173ffffffffffffffffffffffffffffffffffffffff021916908373ffffffffffffffffffffffffffffffffffffffff160217905550600160009054906101000a900473ffffffffffffffffffffffffffffffffffffffff1673ffffffffffffffffffffffffffffffffffffffff167fce241d7ca1f669fee44b6fc00b8eba2df3bb514eed0f6f668f8f89096e81ed9460405160405180910390a250565b6103be336000357fffffffff00000000000000000000000000000000000000000000000000000000166105d7565b6103fd576040517f08c379a00000000000000000000000000000000000000000000000000000000081526004016103f490610a21565b60405180910390fd5b80600260006101000a81548173ffffffffffffffffffffffffffffffffffffffff021916908373ffffffffffffffffffffffffffffffffffffffff16021790555050565b61046f336000357fffffffff00000000000000000000000000000000000000000000000000000000166105d7565b6104ae576040517f08c379a00000000000000000000000000000000000000000000000000000000081526004016104a590610a21565b60405180910390fd5b806000806101000a81548173ffffffffffffffffffffffffffffffffffffffff021916908373ffffffffffffffffffffffffffffffffffffffff16021790555060008054906101000a900473ffffffffffffffffffffffffffffffffffffffff1673ffffffffffffffffffffffffffffffffffffffff167f1abebea81bfa2637f28358c371278fb15ede7ea8dd28d2e03b112ff6d936ada460405160405180910390a250565b600160009054906101000a900473ffffffffffffffffffffffffffffffffffffffff1681565b60008054906101000a900473ffffffffffffffffffffffffffffffffffffffff1681565b600260009054906101000a900473ffffffffffffffffffffffffffffffffffffffff1681565b600080823b905060008111915050919050565b60003073ffffffffffffffffffffffffffffffffffffffff168373ffffffffffffffffffffffffffffffffffffffff16036106155760019050610771565b600160009054906101000a900473ffffffffffffffffffffffffffffffffffffffff1673ffffffffffffffffffffffffffffffffffffffff168373ffffffffffffffffffffffffffffffffffffffff16036106735760019050610771565b600073ffffffffffffffffffffffffffffffffffffffff1660008054906101000a900473ffffffffffffffffffffffffffffffffffffffff1673ffffffffffffffffffffffffffffffffffffffff16036106d05760009050610771565b60008054906101000a900473ffffffffffffffffffffffffffffffffffffffff1673ffffffffffffffffffffffffffffffffffffffff1663b70096138430856040518463ffffffff1660e01b815260040161072d93929190610a7c565b602060405180830381865afa15801561074a573d6000803e3d6000fd5b505050506040513d601f19601f8201168201806040525081019061076e9190610aeb565b90505b92915050565b600073ffffffffffffffffffffffffffffffffffffffff82169050919050565b60006107a282610777565b9050919050565b6107b281610797565b82525050565b6000819050919050565b6107cb816107b8565b82525050565b60006040820190506107e660008301856107a9565b6107f360208301846107c2565b9392505050565b600080fd5b61080881610797565b811461081357600080fd5b50565b600081359050610825816107ff565b92915050565b600060208284031215610841576108406107fa565b5b600061084f84828501610816565b91505092915050565b600061086382610797565b9050919050565b61087381610858565b811461087e57600080fd5b50565b6000813590506108908161086a565b92915050565b6000602082840312156108ac576108ab6107fa565b5b60006108ba84828501610881565b91505092915050565b60006020820190506108d860008301846107a9565b92915050565b6000819050919050565b60006109036108fe6108f984610777565b6108de565b610777565b9050919050565b6000610915826108e8565b9050919050565b60006109278261090a565b9050919050565b6109378161091c565b82525050565b6000602082019050610952600083018461092e565b92915050565b600082825260208201905092915050565b7f647374206973206e6f7420636f6e747261637400000000000000000000000000600082015250565b600061099f601383610958565b91506109aa82610969565b602082019050919050565b600060208201905081810360008301526109ce81610992565b9050919050565b7f64732d617574682d756e617574686f72697a6564000000000000000000000000600082015250565b6000610a0b601483610958565b9150610a16826109d5565b602082019050919050565b60006020820190508181036000830152610a3a816109fe565b9050919050565b60007fffffffff0000000000000000000000000000000000000000000000000000000082169050919050565b610a7681610a41565b82525050565b6000606082019050610a9160008301866107a9565b610a9e60208301856107a9565b610aab6040830184610a6d565b949350505050565b60008115159050919050565b610ac881610ab3565b8114610ad357600080fd5b50565b600081519050610ae581610abf565b92915050565b600060208284031215610b0157610b006107fa565b5b6000610b0f84828501610ad6565b9150509291505056fea2646970667358221220c0b2e2849e9c9f095a37d2f658fc6cc4e8b7299fb15a73816390d7fa932e29a664736f6c63430008120033a26469706673582212206954419283e78f838b44f8df533d674a958b35eada74971b80d3d043cee81a6864736f6c63430008120033",
			"opcodes": "PUSH1 0x80 PUSH1 0x40 MSTORE CALLVALUE DUP1 ISZERO PUSH2 0x10 JUMPI PUSH1 0x0 DUP1 REVERT JUMPDEST POP CALLER PUSH1 0x1 PUSH1 0x0 PUSH2 0x100 EXP DUP2 SLOAD DUP2 PUSH20 0xFFFFFFFFFFFFFFFFFFFFFFFFFFFFFFFFFFFFFFFF MUL NOT AND SWAP1 DUP4 PUSH20 0xFFFFFFFFFFFFFFFFFFFFFFFFFFFFFFFFFFFFFFFF AND MUL OR SWAP1 SSTORE POP PUSH1 0x1 PUSH1 0x0 SWAP1 SLOAD SWAP1 PUSH2 0x100 EXP SWAP1 DIV PUSH20 0xFFFFFFFFFFFFFFFFFFFFFFFFFFFFFFFFFFFFFFFF AND PUSH20 0xFFFFFFFFFFFFFFFFFFFFFFFFFFFFFFFFFFFFFFFF AND PUSH32 0xCE241D7CA1F669FEE44B6FC00B8EBA2DF3BB514EED0F6F668F8F89096E81ED94 PUSH1 0x40 MLOAD PUSH1 0x40 MLOAD DUP1 SWAP2 SUB SWAP1 LOG2 PUSH2 0x2F9E DUP1 PUSH2 0xC6 PUSH1 0x0 CODECOPY PUSH1 0x0 RETURN INVALID PUSH1 0x80 PUSH1 0x40 MSTORE PUSH1 0x4 CALLDATASIZE LT PUSH3 0x116 JUMPI PUSH1 0x0 CALLDATALOAD PUSH1 0xE0 SHR DUP1 PUSH4 0x80EB6DE6 GT PUSH3 0xA3 JUMPI DUP1 PUSH4 0xBD9C6D55 GT PUSH3 0x6D JUMPI DUP1 PUSH4 0xBD9C6D55 EQ PUSH3 0x363 JUMPI DUP1 PUSH4 0xBF7E214F EQ PUSH3 0x383 JUMPI DUP1 PUSH4 0xC4D66DE8 EQ PUSH3 0x3B3 JUMPI DUP1 PUSH4 0xC6D0FF0F EQ PUSH3 0x3E1 JUMPI DUP1 PUSH4 0xCADE88F8 EQ PUSH3 0x40F JUMPI PUSH3 0x116 JUMP JUMPDEST DUP1 PUSH4 0x80EB6DE6 EQ PUSH3 0x2B7 JUMPI DUP1 PUSH4 0x8DA5CB5B EQ PUSH3 0x2D7 JUMPI DUP1 PUSH4 0x8F4FFCB1 EQ PUSH3 0x307 JUMPI DUP1 PUSH4 0xB6BB39B8 EQ PUSH3 0x335 JUMPI PUSH3 0x116 JUMP JUMPDEST DUP1 PUSH4 0x37895713 GT PUSH3 0xE5 JUMPI DUP1 PUSH4 0x37895713 EQ PUSH3 0x1FF JUMPI DUP1 PUSH4 0x5F564682 EQ PUSH3 0x22D JUMPI DUP1 PUSH4 0x6AE7F94F EQ PUSH3 0x25B JUMPI DUP1 PUSH4 0x7A9E5E4B EQ PUSH3 0x289 JUMPI PUSH3 0x116 JUMP JUMPDEST DUP1 PUSH4 0x13AF4035 EQ PUSH3 0x11B JUMPI DUP1 PUSH4 0x1485D297 EQ PUSH3 0x149 JUMPI DUP1 PUSH4 0x2C56EF59 EQ PUSH3 0x18D JUMPI DUP1 PUSH4 0x2E419333 EQ PUSH3 0x1D1 JUMPI JUMPDEST PUSH1 0x0 DUP1 REVERT JUMPDEST CALLVALUE DUP1 ISZERO PUSH3 0x128 JUMPI PUSH1 0x0 DUP1 REVERT JUMPDEST POP PUSH3 0x147 PUSH1 0x4 DUP1 CALLDATASIZE SUB DUP2 ADD SWAP1 PUSH3 0x141 SWAP2 SWAP1 PUSH3 0x1293 JUMP JUMPDEST PUSH3 0x43F JUMP JUMPDEST STOP JUMPDEST CALLVALUE DUP1 ISZERO PUSH3 0x156 JUMPI PUSH1 0x0 DUP1 REVERT JUMPDEST POP PUSH3 0x175 PUSH1 0x4 DUP1 CALLDATASIZE SUB DUP2 ADD SWAP1 PUSH3 0x16F SWAP2 SWAP1 PUSH3 0x1300 JUMP JUMPDEST PUSH3 0x55A JUMP JUMPDEST PUSH1 0x40 MLOAD PUSH3 0x184 SWAP2 SWAP1 PUSH3 0x14BF JUMP JUMPDEST PUSH1 0x40 MLOAD DUP1 SWAP2 SUB SWAP1 RETURN JUMPDEST CALLVALUE DUP1 ISZERO PUSH3 0x19A JUMPI PUSH1 0x0 DUP1 REVERT JUMPDEST POP PUSH3 0x1B9 PUSH1 0x4 DUP1 CALLDATASIZE SUB DUP2 ADD SWAP1 PUSH3 0x1B3 SWAP2 SWAP1 PUSH3 0x1293 JUMP JUMPDEST PUSH3 0x5F1 JUMP JUMPDEST PUSH1 0x40 MLOAD PUSH3 0x1C8 SWAP2 SWAP1 PUSH3 0x14F9 JUMP JUMPDEST PUSH1 0x40 MLOAD DUP1 SWAP2 SUB SWAP1 RETURN JUMPDEST CALLVALUE DUP1 ISZERO PUSH3 0x1DE JUMPI PUSH1 0x0 DUP1 REVERT JUMPDEST POP PUSH3 0x1FD PUSH1 0x4 DUP1 CALLDATASIZE SUB DUP2 ADD SWAP1 PUSH3 0x1F7 SWAP2 SWAP1 PUSH3 0x1547 JUMP JUMPDEST PUSH3 0x611 JUMP JUMPDEST STOP JUMPDEST CALLVALUE DUP1 ISZERO PUSH3 0x20C JUMPI PUSH1 0x0 DUP1 REVERT JUMPDEST POP PUSH3 0x22B PUSH1 0x4 DUP1 CALLDATASIZE SUB DUP2 ADD SWAP1 PUSH3 0x225 SWAP2 SWAP1 PUSH3 0x1770 JUMP JUMPDEST PUSH3 0x6B3 JUMP JUMPDEST STOP JUMPDEST CALLVALUE DUP1 ISZERO PUSH3 0x23A JUMPI PUSH1 0x0 DUP1 REVERT JUMPDEST POP PUSH3 0x259 PUSH1 0x4 DUP1 CALLDATASIZE SUB DUP2 ADD SWAP1 PUSH3 0x253 SWAP2 SWAP1 PUSH3 0x18AF JUMP JUMPDEST PUSH3 0x7BC JUMP JUMPDEST STOP JUMPDEST CALLVALUE DUP1 ISZERO PUSH3 0x268 JUMPI PUSH1 0x0 DUP1 REVERT JUMPDEST POP PUSH3 0x287 PUSH1 0x4 DUP1 CALLDATASIZE SUB DUP2 ADD SWAP1 PUSH3 0x281 SWAP2 SWAP1 PUSH3 0x192A JUMP JUMPDEST PUSH3 0x838 JUMP JUMPDEST STOP JUMPDEST CALLVALUE DUP1 ISZERO PUSH3 0x296 JUMPI PUSH1 0x0 DUP1 REVERT JUMPDEST POP PUSH3 0x2B5 PUSH1 0x4 DUP1 CALLDATASIZE SUB DUP2 ADD SWAP1 PUSH3 0x2AF SWAP2 SWAP1 PUSH3 0x19CB JUMP JUMPDEST PUSH3 0x90F JUMP JUMPDEST STOP JUMPDEST PUSH3 0x2D5 PUSH1 0x4 DUP1 CALLDATASIZE SUB DUP2 ADD SWAP1 PUSH3 0x2CF SWAP2 SWAP1 PUSH3 0x19FD JUMP JUMPDEST PUSH3 0xA27 JUMP JUMPDEST STOP JUMPDEST CALLVALUE DUP1 ISZERO PUSH3 0x2E4 JUMPI PUSH1 0x0 DUP1 REVERT JUMPDEST POP PUSH3 0x2EF PUSH3 0xBDE JUMP JUMPDEST PUSH1 0x40 MLOAD PUSH3 0x2FE SWAP2 SWAP1 PUSH3 0x1A89 JUMP JUMPDEST PUSH1 0x40 MLOAD DUP1 SWAP2 SUB SWAP1 RETURN JUMPDEST CALLVALUE DUP1 ISZERO PUSH3 0x314 JUMPI PUSH1 0x0 DUP1 REVERT JUMPDEST POP PUSH3 0x333 PUSH1 0x4 DUP1 CALLDATASIZE SUB DUP2 ADD SWAP1 PUSH3 0x32D SWAP2 SWAP1 PUSH3 0x1AA6 JUMP JUMPDEST PUSH3 0xC04 JUMP JUMPDEST STOP JUMPDEST CALLVALUE DUP1 ISZERO PUSH3 0x342 JUMPI PUSH1 0x0 DUP1 REVERT JUMPDEST POP PUSH3 0x361 PUSH1 0x4 DUP1 CALLDATASIZE SUB DUP2 ADD SWAP1 PUSH3 0x35B SWAP2 SWAP1 PUSH3 0x1293 JUMP JUMPDEST PUSH3 0xC0A JUMP JUMPDEST STOP JUMPDEST PUSH3 0x381 PUSH1 0x4 DUP1 CALLDATASIZE SUB DUP2 ADD SWAP1 PUSH3 0x37B SWAP2 SWAP1 PUSH3 0x1B37 JUMP JUMPDEST PUSH3 0xCFA JUMP JUMPDEST STOP JUMPDEST CALLVALUE DUP1 ISZERO PUSH3 0x390 JUMPI PUSH1 0x0 DUP1 REVERT JUMPDEST POP PUSH3 0x39B PUSH3 0xD9C JUMP JUMPDEST PUSH1 0x40 MLOAD PUSH3 0x3AA SWAP2 SWAP1 PUSH3 0x1C1D JUMP JUMPDEST PUSH1 0x40 MLOAD DUP1 SWAP2 SUB SWAP1 RETURN JUMPDEST CALLVALUE DUP1 ISZERO PUSH3 0x3C0 JUMPI PUSH1 0x0 DUP1 REVERT JUMPDEST POP PUSH3 0x3DF PUSH1 0x4 DUP1 CALLDATASIZE SUB DUP2 ADD SWAP1 PUSH3 0x3D9 SWAP2 SWAP1 PUSH3 0x1293 JUMP JUMPDEST PUSH3 0xDC0 JUMP JUMPDEST STOP JUMPDEST CALLVALUE DUP1 ISZERO PUSH3 0x3EE JUMPI PUSH1 0x0 DUP1 REVERT JUMPDEST POP PUSH3 0x40D PUSH1 0x4 DUP1 CALLDATASIZE SUB DUP2 ADD SWAP1 PUSH3 0x407 SWAP2 SWAP1 PUSH3 0x18AF JUMP JUMPDEST PUSH3 0xE6C JUMP JUMPDEST STOP JUMPDEST CALLVALUE DUP1 ISZERO PUSH3 0x41C JUMPI PUSH1 0x0 DUP1 REVERT JUMPDEST POP PUSH3 0x427 PUSH3 0xF72 JUMP JUMPDEST PUSH1 0x40 MLOAD PUSH3 0x436 SWAP2 SWAP1 PUSH3 0x1A89 JUMP JUMPDEST PUSH1 0x40 MLOAD DUP1 SWAP2 SUB SWAP1 RETURN JUMPDEST PUSH3 0x46F CALLER PUSH1 0x0 CALLDATALOAD PUSH32 0xFFFFFFFF00000000000000000000000000000000000000000000000000000000 AND PUSH3 0xF98 JUMP JUMPDEST PUSH3 0x4B1 JUMPI PUSH1 0x40 MLOAD PUSH32 0x8C379A000000000000000000000000000000000000000000000000000000000 DUP2 MSTORE PUSH1 0x4 ADD PUSH3 0x4A8 SWAP1 PUSH3 0x1C9B JUMP JUMPDEST PUSH1 0x40 MLOAD DUP1 SWAP2 SUB SWAP1 REVERT JUMPDEST DUP1 PUSH1 0x1 PUSH1 0x0 PUSH2 0x100 EXP DUP2 SLOAD DUP2 PUSH20 0xFFFFFFFFFFFFFFFFFFFFFFFFFFFFFFFFFFFFFFFF MUL NOT AND SWAP1 DUP4 PUSH20 0xFFFFFFFFFFFFFFFFFFFFFFFFFFFFFFFFFFFFFFFF AND MUL OR SWAP1 SSTORE POP PUSH1 0x1 PUSH1 0x0 SWAP1 SLOAD SWAP1 PUSH2 0x100 EXP SWAP1 DIV PUSH20 0xFFFFFFFFFFFFFFFFFFFFFFFFFFFFFFFFFFFFFFFF AND PUSH20 0xFFFFFFFFFFFFFFFFFFFFFFFFFFFFFFFFFFFFFFFF AND PUSH32 0xCE241D7CA1F669FEE44B6FC00B8EBA2DF3BB514EED0F6F668F8F89096E81ED94 PUSH1 0x40 MLOAD PUSH1 0x40 MLOAD DUP1 SWAP2 SUB SWAP1 LOG2 POP JUMP JUMPDEST PUSH3 0x564 PUSH3 0x114B JUMP JUMPDEST PUSH1 0x0 DUP4 SWAP1 POP DUP1 PUSH20 0xFFFFFFFFFFFFFFFFFFFFFFFFFFFFFFFFFFFFFFFF AND PUSH4 0x7A86983F DUP5 PUSH1 0x40 MLOAD DUP3 PUSH4 0xFFFFFFFF AND PUSH1 0xE0 SHL DUP2 MSTORE PUSH1 0x4 ADD PUSH3 0x5A4 SWAP2 SWAP1 PUSH3 0x1CCE JUMP JUMPDEST PUSH1 0xA0 PUSH1 0x40 MLOAD DUP1 DUP4 SUB DUP2 DUP7 GAS STATICCALL ISZERO DUP1 ISZERO PUSH3 0x5C2 JUMPI RETURNDATASIZE PUSH1 0x0 DUP1 RETURNDATACOPY RETURNDATASIZE PUSH1 0x0 REVERT JUMPDEST POP POP POP POP PUSH1 0x40 MLOAD RETURNDATASIZE PUSH1 0x1F NOT PUSH1 0x1F DUP3 ADD AND DUP3 ADD DUP1 PUSH1 0x40 MSTORE POP DUP2 ADD SWAP1 PUSH3 0x5E8 SWAP2 SWAP1 PUSH3 0x1E94 JUMP JUMPDEST SWAP2 POP POP SWAP3 SWAP2 POP POP JUMP JUMPDEST PUSH1 0x3 PUSH1 0x20 MSTORE DUP1 PUSH1 0x0 MSTORE PUSH1 0x40 PUSH1 0x0 KECCAK256 PUSH1 0x0 SWAP2 POP SLOAD SWAP1 PUSH2 0x100 EXP SWAP1 DIV PUSH1 0xFF AND DUP2 JUMP JUMPDEST PUSH1 0x0 PUSH1 0x40 MLOAD DUP1 PUSH1 0x40 ADD PUSH1 0x40 MSTORE DUP1 PUSH1 0x1 PUSH1 0x3 DUP2 GT ISZERO PUSH3 0x635 JUMPI PUSH3 0x634 PUSH3 0x1358 JUMP JUMPDEST JUMPDEST DUP2 MSTORE PUSH1 0x20 ADD PUSH20 0x94F6F02F909CA40DED5CBED1CB4CAB48753F73A5 PUSH20 0xFFFFFFFFFFFFFFFFFFFFFFFFFFFFFFFFFFFFFFFF AND DUP2 MSTORE POP SWAP1 POP PUSH1 0x0 PUSH1 0x40 MLOAD DUP1 PUSH1 0x40 ADD PUSH1 0x40 MSTORE DUP1 DUP4 DUP2 MSTORE PUSH1 0x20 ADD PUSH2 0x3039 DUP2 MSTORE POP SWAP1 POP PUSH1 0x0 PUSH1 0x40 MLOAD DUP1 PUSH1 0x40 ADD PUSH1 0x40 MSTORE DUP1 DUP4 DUP2 MSTORE PUSH1 0x20 ADD DUP6 DUP2 MSTORE POP SWAP1 POP PUSH3 0x6AB DUP7 DUP7 DUP4 PUSH3 0x838 JUMP JUMPDEST POP POP POP POP POP POP JUMP JUMPDEST PUSH1 0x3 PUSH1 0x0 CALLER PUSH20 0xFFFFFFFFFFFFFFFFFFFFFFFFFFFFFFFFFFFFFFFF AND PUSH20 0xFFFFFFFFFFFFFFFFFFFFFFFFFFFFFFFFFFFFFFFF AND DUP2 MSTORE PUSH1 0x20 ADD SWAP1 DUP2 MSTORE PUSH1 0x20 ADD PUSH1 0x0 KECCAK256 PUSH1 0x0 SWAP1 SLOAD SWAP1 PUSH2 0x100 EXP SWAP1 DIV PUSH1 0xFF AND PUSH3 0x742 JUMPI PUSH1 0x40 MLOAD PUSH32 0x8C379A000000000000000000000000000000000000000000000000000000000 DUP2 MSTORE PUSH1 0x4 ADD PUSH3 0x739 SWAP1 PUSH3 0x1F16 JUMP JUMPDEST PUSH1 0x40 MLOAD DUP1 SWAP2 SUB SWAP1 REVERT JUMPDEST DUP3 PUSH20 0xFFFFFFFFFFFFFFFFFFFFFFFFFFFFFFFFFFFFFFFF AND DUP5 PUSH20 0xFFFFFFFFFFFFFFFFFFFFFFFFFFFFFFFFFFFFFFFF AND PUSH32 0x9A99D4FF19CA5B2FE32AF24354C2FC8AB3724E933B824241F751C986AFD90E2A DUP5 DUP5 PUSH3 0x79D PUSH3 0x1143 JUMP JUMPDEST PUSH1 0x40 MLOAD PUSH3 0x7AE SWAP4 SWAP3 SWAP2 SWAP1 PUSH3 0x1F7C JUMP JUMPDEST PUSH1 0x40 MLOAD DUP1 SWAP2 SUB SWAP1 LOG3 POP POP POP POP JUMP JUMPDEST PUSH1 0x0 DUP4 SWAP1 POP DUP1 PUSH20 0xFFFFFFFFFFFFFFFFFFFFFFFFFFFFFFFFFFFFFFFF AND PUSH4 0x55ACCB36 DUP5 DUP5 PUSH1 0x40 MLOAD DUP4 PUSH4 0xFFFFFFFF AND PUSH1 0xE0 SHL DUP2 MSTORE PUSH1 0x4 ADD PUSH3 0x7FE SWAP3 SWAP2 SWAP1 PUSH3 0x2042 JUMP JUMPDEST PUSH1 0x0 PUSH1 0x40 MLOAD DUP1 DUP4 SUB DUP2 PUSH1 0x0 DUP8 DUP1 EXTCODESIZE ISZERO DUP1 ISZERO PUSH3 0x819 JUMPI PUSH1 0x0 DUP1 REVERT JUMPDEST POP GAS CALL ISZERO DUP1 ISZERO PUSH3 0x82E JUMPI RETURNDATASIZE PUSH1 0x0 DUP1 RETURNDATACOPY RETURNDATASIZE PUSH1 0x0 REVERT JUMPDEST POP POP POP POP POP POP POP POP JUMP JUMPDEST PUSH1 0x0 DUP4 SWAP1 POP DUP1 PUSH20 0xFFFFFFFFFFFFFFFFFFFFFFFFFFFFFFFFFFFFFFFF AND PUSH4 0xB9D86C23 DUP5 DUP5 PUSH1 0x40 MLOAD DUP4 PUSH4 0xFFFFFFFF AND PUSH1 0xE0 SHL DUP2 MSTORE PUSH1 0x4 ADD PUSH3 0x87A SWAP3 SWAP2 SWAP1 PUSH3 0x2076 JUMP JUMPDEST PUSH1 0x0 PUSH1 0x40 MLOAD DUP1 DUP4 SUB DUP2 PUSH1 0x0 DUP8 DUP1 EXTCODESIZE ISZERO DUP1 ISZERO PUSH3 0x895 JUMPI PUSH1 0x0 DUP1 REVERT JUMPDEST POP GAS CALL ISZERO DUP1 ISZERO PUSH3 0x8AA JUMPI RETURNDATASIZE PUSH1 0x0 DUP1 RETURNDATACOPY RETURNDATASIZE PUSH1 0x0 REVERT JUMPDEST POP POP POP POP DUP4 PUSH20 0xFFFFFFFFFFFFFFFFFFFFFFFFFFFFFFFFFFFFFFFF AND PUSH32 0xDF5DBFF072C49B2D650B109D22830C44DBAF30F9DBAA691763D386383D96AABE DUP4 PUSH3 0x8F1 PUSH3 0x1143 JUMP JUMPDEST PUSH1 0x40 MLOAD PUSH3 0x901 SWAP3 SWAP2 SWAP1 PUSH3 0x20A3 JUMP JUMPDEST PUSH1 0x40 MLOAD DUP1 SWAP2 SUB SWAP1 LOG2 POP POP POP POP JUMP JUMPDEST PUSH3 0x93F CALLER PUSH1 0x0 CALLDATALOAD PUSH32 0xFFFFFFFF00000000000000000000000000000000000000000000000000000000 AND PUSH3 0xF98 JUMP JUMPDEST PUSH3 0x981 JUMPI PUSH1 0x40 MLOAD PUSH32 0x8C379A000000000000000000000000000000000000000000000000000000000 DUP2 MSTORE PUSH1 0x4 ADD PUSH3 0x978 SWAP1 PUSH3 0x1C9B JUMP JUMPDEST PUSH1 0x40 MLOAD DUP1 SWAP2 SUB SWAP1 REVERT JUMPDEST DUP1 PUSH1 0x0 DUP1 PUSH2 0x100 EXP DUP2 SLOAD DUP2 PUSH20 0xFFFFFFFFFFFFFFFFFFFFFFFFFFFFFFFFFFFFFFFF MUL NOT AND SWAP1 DUP4 PUSH20 0xFFFFFFFFFFFFFFFFFFFFFFFFFFFFFFFFFFFFFFFF AND MUL OR SWAP1 SSTORE POP PUSH1 0x0 DUP1 SLOAD SWAP1 PUSH2 0x100 EXP SWAP1 DIV PUSH20 0xFFFFFFFFFFFFFFFFFFFFFFFFFFFFFFFFFFFFFFFF AND PUSH20 0xFFFFFFFFFFFFFFFFFFFFFFFFFFFFFFFFFFFFFFFF AND PUSH32 0x1ABEBEA81BFA2637F28358C371278FB15EDE7EA8DD28D2E03B112FF6D936ADA4 PUSH1 0x40 MLOAD PUSH1 0x40 MLOAD DUP1 SWAP2 SUB SWAP1 LOG2 POP JUMP JUMPDEST PUSH1 0x0 PUSH20 0xFFFFFFFFFFFFFFFFFFFFFFFFFFFFFFFFFFFFFFFF AND PUSH1 0x2 PUSH1 0x0 SWAP1 SLOAD SWAP1 PUSH2 0x100 EXP SWAP1 DIV PUSH20 0xFFFFFFFFFFFFFFFFFFFFFFFFFFFFFFFFFFFFFFFF AND PUSH20 0xFFFFFFFFFFFFFFFFFFFFFFFFFFFFFFFFFFFFFFFF AND SUB PUSH3 0xABB JUMPI PUSH1 0x40 MLOAD PUSH32 0x8C379A000000000000000000000000000000000000000000000000000000000 DUP2 MSTORE PUSH1 0x4 ADD PUSH3 0xAB2 SWAP1 PUSH3 0x2146 JUMP JUMPDEST PUSH1 0x40 MLOAD DUP1 SWAP2 SUB SWAP1 REVERT JUMPDEST PUSH1 0x0 PUSH1 0x40 MLOAD PUSH3 0xACB SWAP1 PUSH3 0x1183 JUMP JUMPDEST PUSH1 0x40 MLOAD DUP1 SWAP2 SUB SWAP1 PUSH1 0x0 CREATE DUP1 ISZERO DUP1 ISZERO PUSH3 0xAE8 JUMPI RETURNDATASIZE PUSH1 0x0 DUP1 RETURNDATACOPY RETURNDATASIZE PUSH1 0x0 REVERT JUMPDEST POP SWAP1 POP PUSH1 0x0 DUP2 SWAP1 POP DUP5 PUSH20 0xFFFFFFFFFFFFFFFFFFFFFFFFFFFFFFFFFFFFFFFF AND DUP3 PUSH20 0xFFFFFFFFFFFFFFFFFFFFFFFFFFFFFFFFFFFFFFFF AND PUSH32 0x68F9DD5BE4878A74ED3C429422CC4E382F97602B85517BCD82BF84C461E1A26B DUP7 DUP7 PUSH3 0xB4B PUSH3 0x1143 JUMP JUMPDEST DUP7 PUSH20 0xFFFFFFFFFFFFFFFFFFFFFFFFFFFFFFFFFFFFFFFF AND PUSH4 0x54FD4D50 PUSH1 0x40 MLOAD DUP2 PUSH4 0xFFFFFFFF AND PUSH1 0xE0 SHL DUP2 MSTORE PUSH1 0x4 ADD PUSH1 0x20 PUSH1 0x40 MLOAD DUP1 DUP4 SUB DUP2 DUP7 GAS STATICCALL ISZERO DUP1 ISZERO PUSH3 0xB97 JUMPI RETURNDATASIZE PUSH1 0x0 DUP1 RETURNDATACOPY RETURNDATASIZE PUSH1 0x0 REVERT JUMPDEST POP POP POP POP PUSH1 0x40 MLOAD RETURNDATASIZE PUSH1 0x1F NOT PUSH1 0x1F DUP3 ADD AND DUP3 ADD DUP1 PUSH1 0x40 MSTORE POP DUP2 ADD SWAP1 PUSH3 0xBBD SWAP2 SWAP1 PUSH3 0x2168 JUMP JUMPDEST PUSH1 0x40 MLOAD PUSH3 0xBCF SWAP5 SWAP4 SWAP3 SWAP2 SWAP1 PUSH3 0x219A JUMP JUMPDEST PUSH1 0x40 MLOAD DUP1 SWAP2 SUB SWAP1 LOG3 POP POP POP POP POP JUMP JUMPDEST PUSH1 0x1 PUSH1 0x0 SWAP1 SLOAD SWAP1 PUSH2 0x100 EXP SWAP1 DIV PUSH20 0xFFFFFFFFFFFFFFFFFFFFFFFFFFFFFFFFFFFFFFFF AND DUP2 JUMP JUMPDEST POP POP POP POP JUMP JUMPDEST PUSH3 0xC3A CALLER PUSH1 0x0 CALLDATALOAD PUSH32 0xFFFFFFFF00000000000000000000000000000000000000000000000000000000 AND PUSH3 0xF98 JUMP JUMPDEST PUSH3 0xC7C JUMPI PUSH1 0x40 MLOAD PUSH32 0x8C379A000000000000000000000000000000000000000000000000000000000 DUP2 MSTORE PUSH1 0x4 ADD PUSH3 0xC73 SWAP1 PUSH3 0x1C9B JUMP JUMPDEST PUSH1 0x40 MLOAD DUP1 SWAP2 SUB SWAP1 REVERT JUMPDEST PUSH1 0x0 PUSH20 0xFFFFFFFFFFFFFFFFFFFFFFFFFFFFFFFFFFFFFFFF AND DUP2 PUSH20 0xFFFFFFFFFFFFFFFFFFFFFFFFFFFFFFFFFFFFFFFF AND SUB PUSH3 0xCB6 JUMPI PUSH1 0x0 DUP1 REVERT JUMPDEST DUP1 PUSH1 0x2 PUSH1 0x0 PUSH2 0x100 EXP DUP2 SLOAD DUP2 PUSH20 0xFFFFFFFFFFFFFFFFFFFFFFFFFFFFFFFFFFFFFFFF MUL NOT AND SWAP1 DUP4 PUSH20 0xFFFFFFFFFFFFFFFFFFFFFFFFFFFFFFFFFFFFFFFF AND MUL OR SWAP1 SSTORE POP POP JUMP JUMPDEST PUSH1 0x0 PUSH1 0x40 MLOAD DUP1 PUSH1 0x40 ADD PUSH1 0x40 MSTORE DUP1 PUSH1 0x1 PUSH1 0x3 DUP2 GT ISZERO PUSH3 0xD1E JUMPI PUSH3 0xD1D PUSH3 0x1358 JUMP JUMPDEST JUMPDEST DUP2 MSTORE PUSH1 0x20 ADD PUSH20 0x94F6F02F909CA40DED5CBED1CB4CAB48753F73A5 PUSH20 0xFFFFFFFFFFFFFFFFFFFFFFFFFFFFFFFFFFFFFFFF AND DUP2 MSTORE POP SWAP1 POP PUSH1 0x0 PUSH1 0x40 MLOAD DUP1 PUSH1 0x40 ADD PUSH1 0x40 MSTORE DUP1 DUP4 DUP2 MSTORE PUSH1 0x20 ADD PUSH2 0x3039 DUP2 MSTORE POP SWAP1 POP PUSH1 0x0 PUSH1 0x40 MLOAD DUP1 PUSH1 0x40 ADD PUSH1 0x40 MSTORE DUP1 DUP4 DUP2 MSTORE PUSH1 0x20 ADD DUP7 DUP2 MSTORE POP SWAP1 POP PUSH3 0xD94 DUP7 DUP3 DUP7 PUSH3 0xA27 JUMP JUMPDEST POP POP POP POP POP POP JUMP JUMPDEST PUSH1 0x0 DUP1 SLOAD SWAP1 PUSH2 0x100 EXP SWAP1 DIV PUSH20 0xFFFFFFFFFFFFFFFFFFFFFFFFFFFFFFFFFFFFFFFF AND DUP2 JUMP JUMPDEST PUSH1 0x0 PUSH20 0xFFFFFFFFFFFFFFFFFFFFFFFFFFFFFFFFFFFFFFFF AND DUP2 PUSH20 0xFFFFFFFFFFFFFFFFFFFFFFFFFFFFFFFFFFFFFFFF AND SUB PUSH3 0xDFA JUMPI PUSH1 0x0 DUP1 REVERT JUMPDEST ADDRESS PUSH20 0xFFFFFFFFFFFFFFFFFFFFFFFFFFFFFFFFFFFFFFFF AND PUSH4 0xB6BB39B8 DUP3 PUSH1 0x40 MLOAD DUP3 PUSH4 0xFFFFFFFF AND PUSH1 0xE0 SHL DUP2 MSTORE PUSH1 0x4 ADD PUSH3 0xE35 SWAP2 SWAP1 PUSH3 0x1A89 JUMP JUMPDEST PUSH1 0x0 PUSH1 0x40 MLOAD DUP1 DUP4 SUB DUP2 PUSH1 0x0 DUP8 DUP1 EXTCODESIZE ISZERO DUP1 ISZERO PUSH3 0xE50 JUMPI PUSH1 0x0 DUP1 REVERT JUMPDEST POP GAS CALL ISZERO DUP1 ISZERO PUSH3 0xE65 JUMPI RETURNDATASIZE PUSH1 0x0 DUP1 RETURNDATACOPY RETURNDATASIZE PUSH1 0x0 REVERT JUMPDEST POP POP POP POP POP JUMP JUMPDEST PUSH1 0x3 PUSH1 0x0 CALLER PUSH20 0xFFFFFFFFFFFFFFFFFFFFFFFFFFFFFFFFFFFFFFFF AND PUSH20 0xFFFFFFFFFFFFFFFFFFFFFFFFFFFFFFFFFFFFFFFF AND DUP2 MSTORE PUSH1 0x20 ADD SWAP1 DUP2 MSTORE PUSH1 0x20 ADD PUSH1 0x0 KECCAK256 PUSH1 0x0 SWAP1 SLOAD SWAP1 PUSH2 0x100 EXP SWAP1 DIV PUSH1 0xFF AND PUSH3 0xEFB JUMPI PUSH1 0x40 MLOAD PUSH32 0x8C379A000000000000000000000000000000000000000000000000000000000 DUP2 MSTORE PUSH1 0x4 ADD PUSH3 0xEF2 SWAP1 PUSH3 0x1F16 JUMP JUMPDEST PUSH1 0x40 MLOAD DUP1 SWAP2 SUB SWAP1 REVERT JUMPDEST DUP2 PUSH20 0xFFFFFFFFFFFFFFFFFFFFFFFFFFFFFFFFFFFFFFFF AND DUP4 PUSH20 0xFFFFFFFFFFFFFFFFFFFFFFFFFFFFFFFFFFFFFFFF AND PUSH32 0xDE57AA555387FDF330286423816D9515DE73E315E65D70556363DE171E0A4E56 DUP4 PUSH3 0xF55 PUSH3 0x1143 JUMP JUMPDEST PUSH1 0x40 MLOAD PUSH3 0xF65 SWAP3 SWAP2 SWAP1 PUSH3 0x21EE JUMP JUMPDEST PUSH1 0x40 MLOAD DUP1 SWAP2 SUB SWAP1 LOG3 POP POP POP JUMP JUMPDEST PUSH1 0x2 PUSH1 0x0 SWAP1 SLOAD SWAP1 PUSH2 0x100 EXP SWAP1 DIV PUSH20 0xFFFFFFFFFFFFFFFFFFFFFFFFFFFFFFFFFFFFFFFF AND DUP2 JUMP JUMPDEST PUSH1 0x0 ADDRESS PUSH20 0xFFFFFFFFFFFFFFFFFFFFFFFFFFFFFFFFFFFFFFFF AND DUP4 PUSH20 0xFFFFFFFFFFFFFFFFFFFFFFFFFFFFFFFFFFFFFFFF AND SUB PUSH3 0xFD8 JUMPI PUSH1 0x1 SWAP1 POP PUSH3 0x113D JUMP JUMPDEST PUSH1 0x1 PUSH1 0x0 SWAP1 SLOAD SWAP1 PUSH2 0x100 EXP SWAP1 DIV PUSH20 0xFFFFFFFFFFFFFFFFFFFFFFFFFFFFFFFFFFFFFFFF AND PUSH20 0xFFFFFFFFFFFFFFFFFFFFFFFFFFFFFFFFFFFFFFFF AND DUP4 PUSH20 0xFFFFFFFFFFFFFFFFFFFFFFFFFFFFFFFFFFFFFFFF AND SUB PUSH3 0x1038 JUMPI PUSH1 0x1 SWAP1 POP PUSH3 0x113D JUMP JUMPDEST PUSH1 0x0 PUSH20 0xFFFFFFFFFFFFFFFFFFFFFFFFFFFFFFFFFFFFFFFF AND PUSH1 0x0 DUP1 SLOAD SWAP1 PUSH2 0x100 EXP SWAP1 DIV PUSH20 0xFFFFFFFFFFFFFFFFFFFFFFFFFFFFFFFFFFFFFFFF AND PUSH20 0xFFFFFFFFFFFFFFFFFFFFFFFFFFFFFFFFFFFFFFFF AND SUB PUSH3 0x1097 JUMPI PUSH1 0x0 SWAP1 POP PUSH3 0x113D JUMP JUMPDEST PUSH1 0x0 DUP1 SLOAD SWAP1 PUSH2 0x100 EXP SWAP1 DIV PUSH20 0xFFFFFFFFFFFFFFFFFFFFFFFFFFFFFFFFFFFFFFFF AND PUSH20 0xFFFFFFFFFFFFFFFFFFFFFFFFFFFFFFFFFFFFFFFF AND PUSH4 0xB7009613 DUP5 ADDRESS DUP6 PUSH1 0x40 MLOAD DUP5 PUSH4 0xFFFFFFFF AND PUSH1 0xE0 SHL DUP2 MSTORE PUSH1 0x4 ADD PUSH3 0x10F6 SWAP4 SWAP3 SWAP2 SWAP1 PUSH3 0x225F JUMP JUMPDEST PUSH1 0x20 PUSH1 0x40 MLOAD DUP1 DUP4 SUB DUP2 DUP7 GAS STATICCALL ISZERO DUP1 ISZERO PUSH3 0x1114 JUMPI RETURNDATASIZE PUSH1 0x0 DUP1 RETURNDATACOPY RETURNDATASIZE PUSH1 0x0 REVERT JUMPDEST POP POP POP POP PUSH1 0x40 MLOAD RETURNDATASIZE PUSH1 0x1F NOT PUSH1 0x1F DUP3 ADD AND DUP3 ADD DUP1 PUSH1 0x40 MSTORE POP DUP2 ADD SWAP1 PUSH3 0x113A SWAP2 SWAP1 PUSH3 0x22CD JUMP JUMPDEST SWAP1 POP JUMPDEST SWAP3 SWAP2 POP POP JUMP JUMPDEST PUSH1 0x0 NUMBER SWAP1 POP SWAP1 JUMP JUMPDEST PUSH1 0x40 MLOAD DUP1 PUSH1 0x40 ADD PUSH1 0x40 MSTORE DUP1 PUSH1 0x0 PUSH20 0xFFFFFFFFFFFFFFFFFFFFFFFFFFFFFFFFFFFFFFFF AND DUP2 MSTORE PUSH1 0x20 ADD PUSH3 0x117D PUSH3 0x1191 JUMP JUMPDEST DUP2 MSTORE POP SWAP1 JUMP JUMPDEST PUSH2 0xC69 DUP1 PUSH3 0x2300 DUP4 CODECOPY ADD SWAP1 JUMP JUMPDEST PUSH1 0x40 MLOAD DUP1 PUSH1 0x40 ADD PUSH1 0x40 MSTORE DUP1 PUSH3 0x11A6 PUSH3 0x11B3 JUMP JUMPDEST DUP2 MSTORE PUSH1 0x20 ADD PUSH1 0x0 DUP2 MSTORE POP SWAP1 JUMP JUMPDEST PUSH1 0x40 MLOAD DUP1 PUSH1 0x40 ADD PUSH1 0x40 MSTORE DUP1 PUSH3 0x11C8 PUSH3 0x11D5 JUMP JUMPDEST DUP2 MSTORE PUSH1 0x20 ADD PUSH1 0x0 DUP2 MSTORE POP SWAP1 JUMP JUMPDEST PUSH1 0x40 MLOAD DUP1 PUSH1 0x40 ADD PUSH1 0x40 MSTORE DUP1 PUSH1 0x0 PUSH1 0x3 DUP2 GT ISZERO PUSH3 0x11F7 JUMPI PUSH3 0x11F6 PUSH3 0x1358 JUMP JUMPDEST JUMPDEST DUP2 MSTORE PUSH1 0x20 ADD PUSH1 0x0 PUSH20 0xFFFFFFFFFFFFFFFFFFFFFFFFFFFFFFFFFFFFFFFF AND DUP2 MSTORE POP SWAP1 JUMP JUMPDEST PUSH1 0x0 PUSH1 0x40 MLOAD SWAP1 POP SWAP1 JUMP JUMPDEST PUSH1 0x0 DUP1 REVERT JUMPDEST PUSH1 0x0 DUP1 REVERT JUMPDEST PUSH1 0x0 PUSH20 0xFFFFFFFFFFFFFFFFFFFFFFFFFFFFFFFFFFFFFFFF DUP3 AND SWAP1 POP SWAP2 SWAP1 POP JUMP JUMPDEST PUSH1 0x0 PUSH3 0x125B DUP3 PUSH3 0x122E JUMP JUMPDEST SWAP1 POP SWAP2 SWAP1 POP JUMP JUMPDEST PUSH3 0x126D DUP2 PUSH3 0x124E JUMP JUMPDEST DUP2 EQ PUSH3 0x1279 JUMPI PUSH1 0x0 DUP1 REVERT JUMPDEST POP JUMP JUMPDEST PUSH1 0x0 DUP2 CALLDATALOAD SWAP1 POP PUSH3 0x128D DUP2 PUSH3 0x1262 JUMP JUMPDEST SWAP3 SWAP2 POP POP JUMP JUMPDEST PUSH1 0x0 PUSH1 0x20 DUP3 DUP5 SUB SLT ISZERO PUSH3 0x12AC JUMPI PUSH3 0x12AB PUSH3 0x1224 JUMP JUMPDEST JUMPDEST PUSH1 0x0 PUSH3 0x12BC DUP5 DUP3 DUP6 ADD PUSH3 0x127C JUMP JUMPDEST SWAP2 POP POP SWAP3 SWAP2 POP POP JUMP JUMPDEST PUSH1 0x0 DUP2 SWAP1 POP SWAP2 SWAP1 POP JUMP JUMPDEST PUSH3 0x12DA DUP2 PUSH3 0x12C5 JUMP JUMPDEST DUP2 EQ PUSH3 0x12E6 JUMPI PUSH1 0x0 DUP1 REVERT JUMPDEST POP JUMP JUMPDEST PUSH1 0x0 DUP2 CALLDATALOAD SWAP1 POP PUSH3 0x12FA DUP2 PUSH3 0x12CF JUMP JUMPDEST SWAP3 SWAP2 POP POP JUMP JUMPDEST PUSH1 0x0 DUP1 PUSH1 0x40 DUP4 DUP6 SUB SLT ISZERO PUSH3 0x131A JUMPI PUSH3 0x1319 PUSH3 0x1224 JUMP JUMPDEST JUMPDEST PUSH1 0x0 PUSH3 0x132A DUP6 DUP3 DUP7 ADD PUSH3 0x127C JUMP JUMPDEST SWAP3 POP POP PUSH1 0x20 PUSH3 0x133D DUP6 DUP3 DUP7 ADD PUSH3 0x12E9 JUMP JUMPDEST SWAP2 POP POP SWAP3 POP SWAP3 SWAP1 POP JUMP JUMPDEST PUSH3 0x1352 DUP2 PUSH3 0x124E JUMP JUMPDEST DUP3 MSTORE POP POP JUMP JUMPDEST PUSH32 0x4E487B7100000000000000000000000000000000000000000000000000000000 PUSH1 0x0 MSTORE PUSH1 0x21 PUSH1 0x4 MSTORE PUSH1 0x24 PUSH1 0x0 REVERT JUMPDEST PUSH1 0x4 DUP2 LT PUSH3 0x139B JUMPI PUSH3 0x139A PUSH3 0x1358 JUMP JUMPDEST JUMPDEST POP JUMP JUMPDEST PUSH1 0x0 DUP2 SWAP1 POP PUSH3 0x13AE DUP3 PUSH3 0x1387 JUMP JUMPDEST SWAP2 SWAP1 POP JUMP JUMPDEST PUSH1 0x0 PUSH3 0x13C0 DUP3 PUSH3 0x139E JUMP JUMPDEST SWAP1 POP SWAP2 SWAP1 POP JUMP JUMPDEST PUSH3 0x13D2 DUP2 PUSH3 0x13B3 JUMP JUMPDEST DUP3 MSTORE POP POP JUMP JUMPDEST PUSH1 0x40 DUP3 ADD PUSH1 0x0 DUP3 ADD MLOAD PUSH3 0x13F0 PUSH1 0x0 DUP6 ADD DUP3 PUSH3 0x13C7 JUMP JUMPDEST POP PUSH1 0x20 DUP3 ADD MLOAD PUSH3 0x1405 PUSH1 0x20 DUP6 ADD DUP3 PUSH3 0x1347 JUMP JUMPDEST POP POP POP POP JUMP JUMPDEST PUSH1 0x0 DUP2 SWAP1 POP SWAP2 SWAP1 POP JUMP JUMPDEST PUSH3 0x1420 DUP2 PUSH3 0x140B JUMP JUMPDEST DUP3 MSTORE POP POP JUMP JUMPDEST PUSH1 0x60 DUP3 ADD PUSH1 0x0 DUP3 ADD MLOAD PUSH3 0x143E PUSH1 0x0 DUP6 ADD DUP3 PUSH3 0x13D8 JUMP JUMPDEST POP PUSH1 0x20 DUP3 ADD MLOAD PUSH3 0x1453 PUSH1 0x40 DUP6 ADD DUP3 PUSH3 0x1415 JUMP JUMPDEST POP POP POP POP JUMP JUMPDEST PUSH1 0x80 DUP3 ADD PUSH1 0x0 DUP3 ADD MLOAD PUSH3 0x1471 PUSH1 0x0 DUP6 ADD DUP3 PUSH3 0x1426 JUMP JUMPDEST POP PUSH1 0x20 DUP3 ADD MLOAD PUSH3 0x1486 PUSH1 0x60 DUP6 ADD DUP3 PUSH3 0x1415 JUMP JUMPDEST POP POP POP POP JUMP JUMPDEST PUSH1 0xA0 DUP3 ADD PUSH1 0x0 DUP3 ADD MLOAD PUSH3 0x14A4 PUSH1 0x0 DUP6 ADD DUP3 PUSH3 0x1347 JUMP JUMPDEST POP PUSH1 0x20 DUP3 ADD MLOAD PUSH3 0x14B9 PUSH1 0x20 DUP6 ADD DUP3 PUSH3 0x1459 JUMP JUMPDEST POP POP POP POP JUMP JUMPDEST PUSH1 0x0 PUSH1 0xA0 DUP3 ADD SWAP1 POP PUSH3 0x14D6 PUSH1 0x0 DUP4 ADD DUP5 PUSH3 0x148C JUMP JUMPDEST SWAP3 SWAP2 POP POP JUMP JUMPDEST PUSH1 0x0 DUP2 ISZERO ISZERO SWAP1 POP SWAP2 SWAP1 POP JUMP JUMPDEST PUSH3 0x14F3 DUP2 PUSH3 0x14DC JUMP JUMPDEST DUP3 MSTORE POP POP JUMP JUMPDEST PUSH1 0x0 PUSH1 0x20 DUP3 ADD SWAP1 POP PUSH3 0x1510 PUSH1 0x0 DUP4 ADD DUP5 PUSH3 0x14E8 JUMP JUMPDEST SWAP3 SWAP2 POP POP JUMP JUMPDEST PUSH3 0x1521 DUP2 PUSH3 0x140B JUMP JUMPDEST DUP2 EQ PUSH3 0x152D JUMPI PUSH1 0x0 DUP1 REVERT JUMPDEST POP JUMP JUMPDEST PUSH1 0x0 DUP2 CALLDATALOAD SWAP1 POP PUSH3 0x1541 DUP2 PUSH3 0x1516 JUMP JUMPDEST SWAP3 SWAP2 POP POP JUMP JUMPDEST PUSH1 0x0 DUP1 PUSH1 0x0 PUSH1 0x60 DUP5 DUP7 SUB SLT ISZERO PUSH3 0x1563 JUMPI PUSH3 0x1562 PUSH3 0x1224 JUMP JUMPDEST JUMPDEST PUSH1 0x0 PUSH3 0x1573 DUP7 DUP3 DUP8 ADD PUSH3 0x127C JUMP JUMPDEST SWAP4 POP POP PUSH1 0x20 PUSH3 0x1586 DUP7 DUP3 DUP8 ADD PUSH3 0x127C JUMP JUMPDEST SWAP3 POP POP PUSH1 0x40 PUSH3 0x1599 DUP7 DUP3 DUP8 ADD PUSH3 0x1530 JUMP JUMPDEST SWAP2 POP POP SWAP3 POP SWAP3 POP SWAP3 JUMP JUMPDEST PUSH1 0x0 DUP1 REVERT JUMPDEST PUSH1 0x0 PUSH1 0x1F NOT PUSH1 0x1F DUP4 ADD AND SWAP1 POP SWAP2 SWAP1 POP JUMP JUMPDEST PUSH32 0x4E487B7100000000000000000000000000000000000000000000000000000000 PUSH1 0x0 MSTORE PUSH1 0x41 PUSH1 0x4 MSTORE PUSH1 0x24 PUSH1 0x0 REVERT JUMPDEST PUSH3 0x15F3 DUP3 PUSH3 0x15A8 JUMP JUMPDEST DUP2 ADD DUP2 DUP2 LT PUSH8 0xFFFFFFFFFFFFFFFF DUP3 GT OR ISZERO PUSH3 0x1615 JUMPI PUSH3 0x1614 PUSH3 0x15B9 JUMP JUMPDEST JUMPDEST DUP1 PUSH1 0x40 MSTORE POP POP POP JUMP JUMPDEST PUSH1 0x0 PUSH3 0x162A PUSH3 0x121A JUMP JUMPDEST SWAP1 POP PUSH3 0x1638 DUP3 DUP3 PUSH3 0x15E8 JUMP JUMPDEST SWAP2 SWAP1 POP JUMP JUMPDEST PUSH1 0x4 DUP2 LT PUSH3 0x164B JUMPI PUSH1 0x0 DUP1 REVERT JUMPDEST POP JUMP JUMPDEST PUSH1 0x0 DUP2 CALLDATALOAD SWAP1 POP PUSH3 0x165F DUP2 PUSH3 0x163D JUMP JUMPDEST SWAP3 SWAP2 POP POP JUMP JUMPDEST PUSH1 0x0 PUSH1 0x40 DUP3 DUP5 SUB SLT ISZERO PUSH3 0x167E JUMPI PUSH3 0x167D PUSH3 0x15A3 JUMP JUMPDEST JUMPDEST PUSH3 0x168A PUSH1 0x40 PUSH3 0x161E JUMP JUMPDEST SWAP1 POP PUSH1 0x0 PUSH3 0x169C DUP5 DUP3 DUP6 ADD PUSH3 0x164E JUMP JUMPDEST PUSH1 0x0 DUP4 ADD MSTORE POP PUSH1 0x20 PUSH3 0x16B2 DUP5 DUP3 DUP6 ADD PUSH3 0x127C JUMP JUMPDEST PUSH1 0x20 DUP4 ADD MSTORE POP SWAP3 SWAP2 POP POP JUMP JUMPDEST PUSH1 0x0 PUSH1 0x60 DUP3 DUP5 SUB SLT ISZERO PUSH3 0x16D7 JUMPI PUSH3 0x16D6 PUSH3 0x15A3 JUMP JUMPDEST JUMPDEST PUSH3 0x16E3 PUSH1 0x40 PUSH3 0x161E JUMP JUMPDEST SWAP1 POP PUSH1 0x0 PUSH3 0x16F5 DUP5 DUP3 DUP6 ADD PUSH3 0x1665 JUMP JUMPDEST PUSH1 0x0 DUP4 ADD MSTORE POP PUSH1 0x40 PUSH3 0x170B DUP5 DUP3 DUP6 ADD PUSH3 0x1530 JUMP JUMPDEST PUSH1 0x20 DUP4 ADD MSTORE POP SWAP3 SWAP2 POP POP JUMP JUMPDEST PUSH1 0x0 PUSH1 0x80 DUP3 DUP5 SUB SLT ISZERO PUSH3 0x1730 JUMPI PUSH3 0x172F PUSH3 0x15A3 JUMP JUMPDEST JUMPDEST PUSH3 0x173C PUSH1 0x40 PUSH3 0x161E JUMP JUMPDEST SWAP1 POP PUSH1 0x0 PUSH3 0x174E DUP5 DUP3 DUP6 ADD PUSH3 0x16BE JUMP JUMPDEST PUSH1 0x0 DUP4 ADD MSTORE POP PUSH1 0x60 PUSH3 0x1764 DUP5 DUP3 DUP6 ADD PUSH3 0x1530 JUMP JUMPDEST PUSH1 0x20 DUP4 ADD MSTORE POP SWAP3 SWAP2 POP POP JUMP JUMPDEST PUSH1 0x0 DUP1 PUSH1 0x0 DUP1 PUSH1 0xE0 DUP6 DUP8 SUB SLT ISZERO PUSH3 0x178D JUMPI PUSH3 0x178C PUSH3 0x1224 JUMP JUMPDEST JUMPDEST PUSH1 0x0 PUSH3 0x179D DUP8 DUP3 DUP9 ADD PUSH3 0x127C JUMP JUMPDEST SWAP5 POP POP PUSH1 0x20 PUSH3 0x17B0 DUP8 DUP3 DUP9 ADD PUSH3 0x127C JUMP JUMPDEST SWAP4 POP POP PUSH1 0x40 PUSH3 0x17C3 DUP8 DUP3 DUP9 ADD PUSH3 0x12E9 JUMP JUMPDEST SWAP3 POP POP PUSH1 0x60 PUSH3 0x17D6 DUP8 DUP3 DUP9 ADD PUSH3 0x1717 JUMP JUMPDEST SWAP2 POP POP SWAP3 SWAP6 SWAP2 SWAP5 POP SWAP3 POP JUMP JUMPDEST PUSH1 0x0 DUP1 REVERT JUMPDEST PUSH1 0x0 DUP1 REVERT JUMPDEST PUSH1 0x0 PUSH8 0xFFFFFFFFFFFFFFFF DUP3 GT ISZERO PUSH3 0x180A JUMPI PUSH3 0x1809 PUSH3 0x15B9 JUMP JUMPDEST JUMPDEST PUSH3 0x1815 DUP3 PUSH3 0x15A8 JUMP JUMPDEST SWAP1 POP PUSH1 0x20 DUP2 ADD SWAP1 POP SWAP2 SWAP1 POP JUMP JUMPDEST DUP3 DUP2 DUP4 CALLDATACOPY PUSH1 0x0 DUP4 DUP4 ADD MSTORE POP POP POP JUMP JUMPDEST PUSH1 0x0 PUSH3 0x1848 PUSH3 0x1842 DUP5 PUSH3 0x17EC JUMP JUMPDEST PUSH3 0x161E JUMP JUMPDEST SWAP1 POP DUP3 DUP2 MSTORE PUSH1 0x20 DUP2 ADD DUP5 DUP5 DUP5 ADD GT ISZERO PUSH3 0x1867 JUMPI PUSH3 0x1866 PUSH3 0x17E7 JUMP JUMPDEST JUMPDEST PUSH3 0x1874 DUP5 DUP3 DUP6 PUSH3 0x1822 JUMP JUMPDEST POP SWAP4 SWAP3 POP POP POP JUMP JUMPDEST PUSH1 0x0 DUP3 PUSH1 0x1F DUP4 ADD SLT PUSH3 0x1894 JUMPI PUSH3 0x1893 PUSH3 0x17E2 JUMP JUMPDEST JUMPDEST DUP2 CALLDATALOAD PUSH3 0x18A6 DUP5 DUP3 PUSH1 0x20 DUP7 ADD PUSH3 0x1831 JUMP JUMPDEST SWAP2 POP POP SWAP3 SWAP2 POP POP JUMP JUMPDEST PUSH1 0x0 DUP1 PUSH1 0x0 PUSH1 0x60 DUP5 DUP7 SUB SLT ISZERO PUSH3 0x18CB JUMPI PUSH3 0x18CA PUSH3 0x1224 JUMP JUMPDEST JUMPDEST PUSH1 0x0 PUSH3 0x18DB DUP7 DUP3 DUP8 ADD PUSH3 0x127C JUMP JUMPDEST SWAP4 POP POP PUSH1 0x20 PUSH3 0x18EE DUP7 DUP3 DUP8 ADD PUSH3 0x127C JUMP JUMPDEST SWAP3 POP POP PUSH1 0x40 DUP5 ADD CALLDATALOAD PUSH8 0xFFFFFFFFFFFFFFFF DUP2 GT ISZERO PUSH3 0x1912 JUMPI PUSH3 0x1911 PUSH3 0x1229 JUMP JUMPDEST JUMPDEST PUSH3 0x1920 DUP7 DUP3 DUP8 ADD PUSH3 0x187C JUMP JUMPDEST SWAP2 POP POP SWAP3 POP SWAP3 POP SWAP3 JUMP JUMPDEST PUSH1 0x0 DUP1 PUSH1 0x0 PUSH1 0xC0 DUP5 DUP7 SUB SLT ISZERO PUSH3 0x1946 JUMPI PUSH3 0x1945 PUSH3 0x1224 JUMP JUMPDEST JUMPDEST PUSH1 0x0 PUSH3 0x1956 DUP7 DUP3 DUP8 ADD PUSH3 0x127C JUMP JUMPDEST SWAP4 POP POP PUSH1 0x20 PUSH3 0x1969 DUP7 DUP3 DUP8 ADD PUSH3 0x127C JUMP JUMPDEST SWAP3 POP POP PUSH1 0x40 PUSH3 0x197C DUP7 DUP3 DUP8 ADD PUSH3 0x1717 JUMP JUMPDEST SWAP2 POP POP SWAP3 POP SWAP3 POP SWAP3 JUMP JUMPDEST PUSH1 0x0 PUSH3 0x1993 DUP3 PUSH3 0x124E JUMP JUMPDEST SWAP1 POP SWAP2 SWAP1 POP JUMP JUMPDEST PUSH3 0x19A5 DUP2 PUSH3 0x1986 JUMP JUMPDEST DUP2 EQ PUSH3 0x19B1 JUMPI PUSH1 0x0 DUP1 REVERT JUMPDEST POP JUMP JUMPDEST PUSH1 0x0 DUP2 CALLDATALOAD SWAP1 POP PUSH3 0x19C5 DUP2 PUSH3 0x199A JUMP JUMPDEST SWAP3 SWAP2 POP POP JUMP JUMPDEST PUSH1 0x0 PUSH1 0x20 DUP3 DUP5 SUB SLT ISZERO PUSH3 0x19E4 JUMPI PUSH3 0x19E3 PUSH3 0x1224 JUMP JUMPDEST JUMPDEST PUSH1 0x0 PUSH3 0x19F4 DUP5 DUP3 DUP6 ADD PUSH3 0x19B4 JUMP JUMPDEST SWAP2 POP POP SWAP3 SWAP2 POP POP JUMP JUMPDEST PUSH1 0x0 DUP1 PUSH1 0x0 PUSH1 0xC0 DUP5 DUP7 SUB SLT ISZERO PUSH3 0x1A19 JUMPI PUSH3 0x1A18 PUSH3 0x1224 JUMP JUMPDEST JUMPDEST PUSH1 0x0 PUSH3 0x1A29 DUP7 DUP3 DUP8 ADD PUSH3 0x127C JUMP JUMPDEST SWAP4 POP POP PUSH1 0x20 PUSH3 0x1A3C DUP7 DUP3 DUP8 ADD PUSH3 0x1717 JUMP JUMPDEST SWAP3 POP POP PUSH1 0xA0 DUP5 ADD CALLDATALOAD PUSH8 0xFFFFFFFFFFFFFFFF DUP2 GT ISZERO PUSH3 0x1A60 JUMPI PUSH3 0x1A5F PUSH3 0x1229 JUMP JUMPDEST JUMPDEST PUSH3 0x1A6E DUP7 DUP3 DUP8 ADD PUSH3 0x187C JUMP JUMPDEST SWAP2 POP POP SWAP3 POP SWAP3 POP SWAP3 JUMP JUMPDEST PUSH3 0x1A83 DUP2 PUSH3 0x124E JUMP JUMPDEST DUP3 MSTORE POP POP JUMP JUMPDEST PUSH1 0x0 PUSH1 0x20 DUP3 ADD SWAP1 POP PUSH3 0x1AA0 PUSH1 0x0 DUP4 ADD DUP5 PUSH3 0x1A78 JUMP JUMPDEST SWAP3 SWAP2 POP POP JUMP JUMPDEST PUSH1 0x0 DUP1 PUSH1 0x0 DUP1 PUSH1 0x80 DUP6 DUP8 SUB SLT ISZERO PUSH3 0x1AC3 JUMPI PUSH3 0x1AC2 PUSH3 0x1224 JUMP JUMPDEST JUMPDEST PUSH1 0x0 PUSH3 0x1AD3 DUP8 DUP3 DUP9 ADD PUSH3 0x127C JUMP JUMPDEST SWAP5 POP POP PUSH1 0x20 PUSH3 0x1AE6 DUP8 DUP3 DUP9 ADD PUSH3 0x1530 JUMP JUMPDEST SWAP4 POP POP PUSH1 0x40 PUSH3 0x1AF9 DUP8 DUP3 DUP9 ADD PUSH3 0x127C JUMP JUMPDEST SWAP3 POP POP PUSH1 0x60 DUP6 ADD CALLDATALOAD PUSH8 0xFFFFFFFFFFFFFFFF DUP2 GT ISZERO PUSH3 0x1B1D JUMPI PUSH3 0x1B1C PUSH3 0x1229 JUMP JUMPDEST JUMPDEST PUSH3 0x1B2B DUP8 DUP3 DUP9 ADD PUSH3 0x187C JUMP JUMPDEST SWAP2 POP POP SWAP3 SWAP6 SWAP2 SWAP5 POP SWAP3 POP JUMP JUMPDEST PUSH1 0x0 DUP1 PUSH1 0x0 PUSH1 0x60 DUP5 DUP7 SUB SLT ISZERO PUSH3 0x1B53 JUMPI PUSH3 0x1B52 PUSH3 0x1224 JUMP JUMPDEST JUMPDEST PUSH1 0x0 PUSH3 0x1B63 DUP7 DUP3 DUP8 ADD PUSH3 0x127C JUMP JUMPDEST SWAP4 POP POP PUSH1 0x20 PUSH3 0x1B76 DUP7 DUP3 DUP8 ADD PUSH3 0x1530 JUMP JUMPDEST SWAP3 POP POP PUSH1 0x40 DUP5 ADD CALLDATALOAD PUSH8 0xFFFFFFFFFFFFFFFF DUP2 GT ISZERO PUSH3 0x1B9A JUMPI PUSH3 0x1B99 PUSH3 0x1229 JUMP JUMPDEST JUMPDEST PUSH3 0x1BA8 DUP7 DUP3 DUP8 ADD PUSH3 0x187C JUMP JUMPDEST SWAP2 POP POP SWAP3 POP SWAP3 POP SWAP3 JUMP JUMPDEST PUSH1 0x0 DUP2 SWAP1 POP SWAP2 SWAP1 POP JUMP JUMPDEST PUSH1 0x0 PUSH3 0x1BDD PUSH3 0x1BD7 PUSH3 0x1BD1 DUP5 PUSH3 0x122E JUMP JUMPDEST PUSH3 0x1BB2 JUMP JUMPDEST PUSH3 0x122E JUMP JUMPDEST SWAP1 POP SWAP2 SWAP1 POP JUMP JUMPDEST PUSH1 0x0 PUSH3 0x1BF1 DUP3 PUSH3 0x1BBC JUMP JUMPDEST SWAP1 POP SWAP2 SWAP1 POP JUMP JUMPDEST PUSH1 0x0 PUSH3 0x1C05 DUP3 PUSH3 0x1BE4 JUMP JUMPDEST SWAP1 POP SWAP2 SWAP1 POP JUMP JUMPDEST PUSH3 0x1C17 DUP2 PUSH3 0x1BF8 JUMP JUMPDEST DUP3 MSTORE POP POP JUMP JUMPDEST PUSH1 0x0 PUSH1 0x20 DUP3 ADD SWAP1 POP PUSH3 0x1C34 PUSH1 0x0 DUP4 ADD DUP5 PUSH3 0x1C0C JUMP JUMPDEST SWAP3 SWAP2 POP POP JUMP JUMPDEST PUSH1 0x0 DUP3 DUP3 MSTORE PUSH1 0x20 DUP3 ADD SWAP1 POP SWAP3 SWAP2 POP POP JUMP JUMPDEST PUSH32 0x64732D617574682D756E617574686F72697A6564000000000000000000000000 PUSH1 0x0 DUP3 ADD MSTORE POP JUMP JUMPDEST PUSH1 0x0 PUSH3 0x1C83 PUSH1 0x14 DUP4 PUSH3 0x1C3A JUMP JUMPDEST SWAP2 POP PUSH3 0x1C90 DUP3 PUSH3 0x1C4B JUMP JUMPDEST PUSH1 0x20 DUP3 ADD SWAP1 POP SWAP2 SWAP1 POP JUMP JUMPDEST PUSH1 0x0 PUSH1 0x20 DUP3 ADD SWAP1 POP DUP2 DUP2 SUB PUSH1 0x0 DUP4 ADD MSTORE PUSH3 0x1CB6 DUP2 PUSH3 0x1C74 JUMP JUMPDEST SWAP1 POP SWAP2 SWAP1 POP JUMP JUMPDEST PUSH3 0x1CC8 DUP2 PUSH3 0x12C5 JUMP JUMPDEST DUP3 MSTORE POP POP JUMP JUMPDEST PUSH1 0x0 PUSH1 0x20 DUP3 ADD SWAP1 POP PUSH3 0x1CE5 PUSH1 0x0 DUP4 ADD DUP5 PUSH3 0x1CBD JUMP JUMPDEST SWAP3 SWAP2 POP POP JUMP JUMPDEST PUSH1 0x0 DUP2 MLOAD SWAP1 POP PUSH3 0x1CFC DUP2 PUSH3 0x1262 JUMP JUMPDEST SWAP3 SWAP2 POP POP JUMP JUMPDEST PUSH1 0x0 DUP2 MLOAD SWAP1 POP PUSH3 0x1D13 DUP2 PUSH3 0x163D JUMP JUMPDEST SWAP3 SWAP2 POP POP JUMP JUMPDEST PUSH1 0x0 PUSH1 0x40 DUP3 DUP5 SUB SLT ISZERO PUSH3 0x1D32 JUMPI PUSH3 0x1D31 PUSH3 0x15A3 JUMP JUMPDEST JUMPDEST PUSH3 0x1D3E PUSH1 0x40 PUSH3 0x161E JUMP JUMPDEST SWAP1 POP PUSH1 0x0 PUSH3 0x1D50 DUP5 DUP3 DUP6 ADD PUSH3 0x1D02 JUMP JUMPDEST PUSH1 0x0 DUP4 ADD MSTORE POP PUSH1 0x20 PUSH3 0x1D66 DUP5 DUP3 DUP6 ADD PUSH3 0x1CEB JUMP JUMPDEST PUSH1 0x20 DUP4 ADD MSTORE POP SWAP3 SWAP2 POP POP JUMP JUMPDEST PUSH1 0x0 DUP2 MLOAD SWAP1 POP PUSH3 0x1D83 DUP2 PUSH3 0x1516 JUMP JUMPDEST SWAP3 SWAP2 POP POP JUMP JUMPDEST PUSH1 0x0 PUSH1 0x60 DUP3 DUP5 SUB SLT ISZERO PUSH3 0x1DA2 JUMPI PUSH3 0x1DA1 PUSH3 0x15A3 JUMP JUMPDEST JUMPDEST PUSH3 0x1DAE PUSH1 0x40 PUSH3 0x161E JUMP JUMPDEST SWAP1 POP PUSH1 0x0 PUSH3 0x1DC0 DUP5 DUP3 DUP6 ADD PUSH3 0x1D19 JUMP JUMPDEST PUSH1 0x0 DUP4 ADD MSTORE POP PUSH1 0x40 PUSH3 0x1DD6 DUP5 DUP3 DUP6 ADD PUSH3 0x1D72 JUMP JUMPDEST PUSH1 0x20 DUP4 ADD MSTORE POP SWAP3 SWAP2 POP POP JUMP JUMPDEST PUSH1 0x0 PUSH1 0x80 DUP3 DUP5 SUB SLT ISZERO PUSH3 0x1DFB JUMPI PUSH3 0x1DFA PUSH3 0x15A3 JUMP JUMPDEST JUMPDEST PUSH3 0x1E07 PUSH1 0x40 PUSH3 0x161E JUMP JUMPDEST SWAP1 POP PUSH1 0x0 PUSH3 0x1E19 DUP5 DUP3 DUP6 ADD PUSH3 0x1D89 JUMP JUMPDEST PUSH1 0x0 DUP4 ADD MSTORE POP PUSH1 0x60 PUSH3 0x1E2F DUP5 DUP3 DUP6 ADD PUSH3 0x1D72 JUMP JUMPDEST PUSH1 0x20 DUP4 ADD MSTORE POP SWAP3 SWAP2 POP POP JUMP JUMPDEST PUSH1 0x0 PUSH1 0xA0 DUP3 DUP5 SUB SLT ISZERO PUSH3 0x1E54 JUMPI PUSH3 0x1E53 PUSH3 0x15A3 JUMP JUMPDEST JUMPDEST PUSH3 0x1E60 PUSH1 0x40 PUSH3 0x161E JUMP JUMPDEST SWAP1 POP PUSH1 0x0 PUSH3 0x1E72 DUP5 DUP3 DUP6 ADD PUSH3 0x1CEB JUMP JUMPDEST PUSH1 0x0 DUP4 ADD MSTORE POP PUSH1 0x20 PUSH3 0x1E88 DUP5 DUP3 DUP6 ADD PUSH3 0x1DE2 JUMP JUMPDEST PUSH1 0x20 DUP4 ADD MSTORE POP SWAP3 SWAP2 POP POP JUMP JUMPDEST PUSH1 0x0 PUSH1 0xA0 DUP3 DUP5 SUB SLT ISZERO PUSH3 0x1EAD JUMPI PUSH3 0x1EAC PUSH3 0x1224 JUMP JUMPDEST JUMPDEST PUSH1 0x0 PUSH3 0x1EBD DUP5 DUP3 DUP6 ADD PUSH3 0x1E3B JUMP JUMPDEST SWAP2 POP POP SWAP3 SWAP2 POP POP JUMP JUMPDEST PUSH32 0x4E6F7420612064656D616E6420636F6E74726163742061646472657373000000 PUSH1 0x0 DUP3 ADD MSTORE POP JUMP JUMPDEST PUSH1 0x0 PUSH3 0x1EFE PUSH1 0x1D DUP4 PUSH3 0x1C3A JUMP JUMPDEST SWAP2 POP PUSH3 0x1F0B DUP3 PUSH3 0x1EC6 JUMP JUMPDEST PUSH1 0x20 DUP3 ADD SWAP1 POP SWAP2 SWAP1 POP JUMP JUMPDEST PUSH1 0x0 PUSH1 0x20 DUP3 ADD SWAP1 POP DUP2 DUP2 SUB PUSH1 0x0 DUP4 ADD MSTORE PUSH3 0x1F31 DUP2 PUSH3 0x1EEF JUMP JUMPDEST SWAP1 POP SWAP2 SWAP1 POP JUMP JUMPDEST PUSH1 0x80 DUP3 ADD PUSH1 0x0 DUP3 ADD MLOAD PUSH3 0x1F50 PUSH1 0x0 DUP6 ADD DUP3 PUSH3 0x1426 JUMP JUMPDEST POP PUSH1 0x20 DUP3 ADD MLOAD PUSH3 0x1F65 PUSH1 0x60 DUP6 ADD DUP3 PUSH3 0x1415 JUMP JUMPDEST POP POP POP POP JUMP JUMPDEST PUSH3 0x1F76 DUP2 PUSH3 0x140B JUMP JUMPDEST DUP3 MSTORE POP POP JUMP JUMPDEST PUSH1 0x0 PUSH1 0xC0 DUP3 ADD SWAP1 POP PUSH3 0x1F93 PUSH1 0x0 DUP4 ADD DUP7 PUSH3 0x1CBD JUMP JUMPDEST PUSH3 0x1FA2 PUSH1 0x20 DUP4 ADD DUP6 PUSH3 0x1F38 JUMP JUMPDEST PUSH3 0x1FB1 PUSH1 0xA0 DUP4 ADD DUP5 PUSH3 0x1F6B JUMP JUMPDEST SWAP5 SWAP4 POP POP POP POP JUMP JUMPDEST PUSH1 0x0 DUP2 MLOAD SWAP1 POP SWAP2 SWAP1 POP JUMP JUMPDEST PUSH1 0x0 DUP3 DUP3 MSTORE PUSH1 0x20 DUP3 ADD SWAP1 POP SWAP3 SWAP2 POP POP JUMP JUMPDEST PUSH1 0x0 JUMPDEST DUP4 DUP2 LT ISZERO PUSH3 0x1FF5 JUMPI DUP1 DUP3 ADD MLOAD DUP2 DUP5 ADD MSTORE PUSH1 0x20 DUP2 ADD SWAP1 POP PUSH3 0x1FD8 JUMP JUMPDEST PUSH1 0x0 DUP5 DUP5 ADD MSTORE POP POP POP POP JUMP JUMPDEST PUSH1 0x0 PUSH3 0x200E DUP3 PUSH3 0x1FB9 JUMP JUMPDEST PUSH3 0x201A DUP2 DUP6 PUSH3 0x1FC4 JUMP JUMPDEST SWAP4 POP PUSH3 0x202C DUP2 DUP6 PUSH1 0x20 DUP7 ADD PUSH3 0x1FD5 JUMP JUMPDEST PUSH3 0x2037 DUP2 PUSH3 0x15A8 JUMP JUMPDEST DUP5 ADD SWAP2 POP POP SWAP3 SWAP2 POP POP JUMP JUMPDEST PUSH1 0x0 PUSH1 0x40 DUP3 ADD SWAP1 POP PUSH3 0x2059 PUSH1 0x0 DUP4 ADD DUP6 PUSH3 0x1A78 JUMP JUMPDEST DUP2 DUP2 SUB PUSH1 0x20 DUP4 ADD MSTORE PUSH3 0x206D DUP2 DUP5 PUSH3 0x2001 JUMP JUMPDEST SWAP1 POP SWAP4 SWAP3 POP POP POP JUMP JUMPDEST PUSH1 0x0 PUSH1 0xA0 DUP3 ADD SWAP1 POP PUSH3 0x208D PUSH1 0x0 DUP4 ADD DUP6 PUSH3 0x1A78 JUMP JUMPDEST PUSH3 0x209C PUSH1 0x20 DUP4 ADD DUP5 PUSH3 0x1F38 JUMP JUMPDEST SWAP4 SWAP3 POP POP POP JUMP JUMPDEST PUSH1 0x0 PUSH1 0xA0 DUP3 ADD SWAP1 POP PUSH3 0x20BA PUSH1 0x0 DUP4 ADD DUP6 PUSH3 0x1F38 JUMP JUMPDEST PUSH3 0x20C9 PUSH1 0x80 DUP4 ADD DUP5 PUSH3 0x1F6B JUMP JUMPDEST SWAP4 SWAP3 POP POP POP JUMP JUMPDEST PUSH32 0x64656D616E6450726F7879546172676574206D75737420626520736574206672 PUSH1 0x0 DUP3 ADD MSTORE PUSH32 0x6F6D2043434323696E697469616C697A65206669727374000000000000000000 PUSH1 0x20 DUP3 ADD MSTORE POP JUMP JUMPDEST PUSH1 0x0 PUSH3 0x212E PUSH1 0x37 DUP4 PUSH3 0x1C3A JUMP JUMPDEST SWAP2 POP PUSH3 0x213B DUP3 PUSH3 0x20D0 JUMP JUMPDEST PUSH1 0x40 DUP3 ADD SWAP1 POP SWAP2 SWAP1 POP JUMP JUMPDEST PUSH1 0x0 PUSH1 0x20 DUP3 ADD SWAP1 POP DUP2 DUP2 SUB PUSH1 0x0 DUP4 ADD MSTORE PUSH3 0x2161 DUP2 PUSH3 0x211F JUMP JUMPDEST SWAP1 POP SWAP2 SWAP1 POP JUMP JUMPDEST PUSH1 0x0 PUSH1 0x20 DUP3 DUP5 SUB SLT ISZERO PUSH3 0x2181 JUMPI PUSH3 0x2180 PUSH3 0x1224 JUMP JUMPDEST JUMPDEST PUSH1 0x0 PUSH3 0x2191 DUP5 DUP3 DUP6 ADD PUSH3 0x1D72 JUMP JUMPDEST SWAP2 POP POP SWAP3 SWAP2 POP POP JUMP JUMPDEST PUSH1 0x0 PUSH1 0xE0 DUP3 ADD SWAP1 POP PUSH3 0x21B1 PUSH1 0x0 DUP4 ADD DUP8 PUSH3 0x1F38 JUMP JUMPDEST DUP2 DUP2 SUB PUSH1 0x80 DUP4 ADD MSTORE PUSH3 0x21C5 DUP2 DUP7 PUSH3 0x2001 JUMP JUMPDEST SWAP1 POP PUSH3 0x21D6 PUSH1 0xA0 DUP4 ADD DUP6 PUSH3 0x1F6B JUMP JUMPDEST PUSH3 0x21E5 PUSH1 0xC0 DUP4 ADD DUP5 PUSH3 0x1F6B JUMP JUMPDEST SWAP6 SWAP5 POP POP POP POP POP JUMP JUMPDEST PUSH1 0x0 PUSH1 0x40 DUP3 ADD SWAP1 POP DUP2 DUP2 SUB PUSH1 0x0 DUP4 ADD MSTORE PUSH3 0x220A DUP2 DUP6 PUSH3 0x2001 JUMP JUMPDEST SWAP1 POP PUSH3 0x221B PUSH1 0x20 DUP4 ADD DUP5 PUSH3 0x1F6B JUMP JUMPDEST SWAP4 SWAP3 POP POP POP JUMP JUMPDEST PUSH1 0x0 PUSH32 0xFFFFFFFF00000000000000000000000000000000000000000000000000000000 DUP3 AND SWAP1 POP SWAP2 SWAP1 POP JUMP JUMPDEST PUSH3 0x2259 DUP2 PUSH3 0x2222 JUMP JUMPDEST DUP3 MSTORE POP POP JUMP JUMPDEST PUSH1 0x0 PUSH1 0x60 DUP3 ADD SWAP1 POP PUSH3 0x2276 PUSH1 0x0 DUP4 ADD DUP7 PUSH3 0x1A78 JUMP JUMPDEST PUSH3 0x2285 PUSH1 0x20 DUP4 ADD DUP6 PUSH3 0x1A78 JUMP JUMPDEST PUSH3 0x2294 PUSH1 0x40 DUP4 ADD DUP5 PUSH3 0x224E JUMP JUMPDEST SWAP5 SWAP4 POP POP POP POP JUMP JUMPDEST PUSH3 0x22A7 DUP2 PUSH3 0x14DC JUMP JUMPDEST DUP2 EQ PUSH3 0x22B3 JUMPI PUSH1 0x0 DUP1 REVERT JUMPDEST POP JUMP JUMPDEST PUSH1 0x0 DUP2 MLOAD SWAP1 POP PUSH3 0x22C7 DUP2 PUSH3 0x229C JUMP JUMPDEST SWAP3 SWAP2 POP POP JUMP JUMPDEST PUSH1 0x0 PUSH1 0x20 DUP3 DUP5 SUB SLT ISZERO PUSH3 0x22E6 JUMPI PUSH3 0x22E5 PUSH3 0x1224 JUMP JUMPDEST JUMPDEST PUSH1 0x0 PUSH3 0x22F6 DUP5 DUP3 DUP6 ADD PUSH3 0x22B6 JUMP JUMPDEST SWAP2 POP POP SWAP3 SWAP2 POP POP JUMP INVALID PUSH1 0x80 PUSH1 0x40 MSTORE PUSH20 0x61B241D27A1AB30C3E268E264D231F8E0AB3A4E6 PUSH1 0x2 PUSH1 0x0 PUSH2 0x100 EXP DUP2 SLOAD DUP2 PUSH20 0xFFFFFFFFFFFFFFFFFFFFFFFFFFFFFFFFFFFFFFFF MUL NOT AND SWAP1 DUP4 PUSH20 0xFFFFFFFFFFFFFFFFFFFFFFFFFFFFFFFFFFFFFFFF AND MUL OR SWAP1 SSTORE POP CALLVALUE DUP1 ISZERO PUSH2 0x65 JUMPI PUSH1 0x0 DUP1 REVERT JUMPDEST POP CALLER PUSH1 0x1 PUSH1 0x0 PUSH2 0x100 EXP DUP2 SLOAD DUP2 PUSH20 0xFFFFFFFFFFFFFFFFFFFFFFFFFFFFFFFFFFFFFFFF MUL NOT AND SWAP1 DUP4 PUSH20 0xFFFFFFFFFFFFFFFFFFFFFFFFFFFFFFFFFFFFFFFF AND MUL OR SWAP1 SSTORE POP PUSH1 0x1 PUSH1 0x0 SWAP1 SLOAD SWAP1 PUSH2 0x100 EXP SWAP1 DIV PUSH20 0xFFFFFFFFFFFFFFFFFFFFFFFFFFFFFFFFFFFFFFFF AND PUSH20 0xFFFFFFFFFFFFFFFFFFFFFFFFFFFFFFFFFFFFFFFF AND PUSH32 0xCE241D7CA1F669FEE44B6FC00B8EBA2DF3BB514EED0F6F668F8F89096E81ED94 PUSH1 0x40 MLOAD PUSH1 0x40 MLOAD DUP1 SWAP2 SUB SWAP1 LOG2 PUSH2 0xB4E DUP1 PUSH2 0x11B PUSH1 0x0 CODECOPY PUSH1 0x0 RETURN INVALID PUSH1 0x80 PUSH1 0x40 MSTORE PUSH1 0x4 CALLDATASIZE LT PUSH2 0x59 JUMPI PUSH1 0x0 CALLDATALOAD PUSH1 0xE0 SHR DUP1 PUSH4 0x13AF4035 EQ PUSH2 0x10C JUMPI DUP1 PUSH4 0x776D1A01 EQ PUSH2 0x135 JUMPI DUP1 PUSH4 0x7A9E5E4B EQ PUSH2 0x15E JUMPI DUP1 PUSH4 0x8DA5CB5B EQ PUSH2 0x187 JUMPI DUP1 PUSH4 0xBF7E214F EQ PUSH2 0x1B2 JUMPI DUP1 PUSH4 0xD4B83992 EQ PUSH2 0x1DD JUMPI PUSH2 0x99 JUMP JUMPDEST CALLDATASIZE PUSH2 0x99 JUMPI PUSH32 0x88A5966D370B9919B20F3E2C13FF65706F196A4E32CC2C12BF57088F88525874 CALLER CALLVALUE PUSH1 0x40 MLOAD PUSH2 0x8F SWAP3 SWAP2 SWAP1 PUSH2 0x7D1 JUMP JUMPDEST PUSH1 0x40 MLOAD DUP1 SWAP2 SUB SWAP1 LOG1 STOP JUMPDEST PUSH2 0x10A PUSH1 0x2 PUSH1 0x0 SWAP1 SLOAD SWAP1 PUSH2 0x100 EXP SWAP1 DIV PUSH20 0xFFFFFFFFFFFFFFFFFFFFFFFFFFFFFFFFFFFFFFFF AND PUSH1 0x0 CALLDATASIZE DUP1 DUP1 PUSH1 0x1F ADD PUSH1 0x20 DUP1 SWAP2 DIV MUL PUSH1 0x20 ADD PUSH1 0x40 MLOAD SWAP1 DUP2 ADD PUSH1 0x40 MSTORE DUP1 SWAP4 SWAP3 SWAP2 SWAP1 DUP2 DUP2 MSTORE PUSH1 0x20 ADD DUP4 DUP4 DUP1 DUP3 DUP5 CALLDATACOPY PUSH1 0x0 DUP2 DUP5 ADD MSTORE PUSH1 0x1F NOT PUSH1 0x1F DUP3 ADD AND SWAP1 POP DUP1 DUP4 ADD SWAP3 POP POP POP POP POP POP POP PUSH2 0x208 JUMP JUMPDEST STOP JUMPDEST CALLVALUE DUP1 ISZERO PUSH2 0x118 JUMPI PUSH1 0x0 DUP1 REVERT JUMPDEST POP PUSH2 0x133 PUSH1 0x4 DUP1 CALLDATASIZE SUB DUP2 ADD SWAP1 PUSH2 0x12E SWAP2 SWAP1 PUSH2 0x82B JUMP JUMPDEST PUSH2 0x27A JUMP JUMPDEST STOP JUMPDEST CALLVALUE DUP1 ISZERO PUSH2 0x141 JUMPI PUSH1 0x0 DUP1 REVERT JUMPDEST POP PUSH2 0x15C PUSH1 0x4 DUP1 CALLDATASIZE SUB DUP2 ADD SWAP1 PUSH2 0x157 SWAP2 SWAP1 PUSH2 0x82B JUMP JUMPDEST PUSH2 0x390 JUMP JUMPDEST STOP JUMPDEST CALLVALUE DUP1 ISZERO PUSH2 0x16A JUMPI PUSH1 0x0 DUP1 REVERT JUMPDEST POP PUSH2 0x185 PUSH1 0x4 DUP1 CALLDATASIZE SUB DUP2 ADD SWAP1 PUSH2 0x180 SWAP2 SWAP1 PUSH2 0x896 JUMP JUMPDEST PUSH2 0x441 JUMP JUMPDEST STOP JUMPDEST CALLVALUE DUP1 ISZERO PUSH2 0x193 JUMPI PUSH1 0x0 DUP1 REVERT JUMPDEST POP PUSH2 0x19C PUSH2 0x554 JUMP JUMPDEST PUSH1 0x40 MLOAD PUSH2 0x1A9 SWAP2 SWAP1 PUSH2 0x8C3 JUMP JUMPDEST PUSH1 0x40 MLOAD DUP1 SWAP2 SUB SWAP1 RETURN JUMPDEST CALLVALUE DUP1 ISZERO PUSH2 0x1BE JUMPI PUSH1 0x0 DUP1 REVERT JUMPDEST POP PUSH2 0x1C7 PUSH2 0x57A JUMP JUMPDEST PUSH1 0x40 MLOAD PUSH2 0x1D4 SWAP2 SWAP1 PUSH2 0x93D JUMP JUMPDEST PUSH1 0x40 MLOAD DUP1 SWAP2 SUB SWAP1 RETURN JUMPDEST CALLVALUE DUP1 ISZERO PUSH2 0x1E9 JUMPI PUSH1 0x0 DUP1 REVERT JUMPDEST POP PUSH2 0x1F2 PUSH2 0x59E JUMP JUMPDEST PUSH1 0x40 MLOAD PUSH2 0x1FF SWAP2 SWAP1 PUSH2 0x8C3 JUMP JUMPDEST PUSH1 0x40 MLOAD DUP1 SWAP2 SUB SWAP1 RETURN JUMPDEST PUSH2 0x211 DUP3 PUSH2 0x5C4 JUMP JUMPDEST PUSH2 0x250 JUMPI PUSH1 0x40 MLOAD PUSH32 0x8C379A000000000000000000000000000000000000000000000000000000000 DUP2 MSTORE PUSH1 0x4 ADD PUSH2 0x247 SWAP1 PUSH2 0x9B5 JUMP JUMPDEST PUSH1 0x40 MLOAD DUP1 SWAP2 SUB SWAP1 REVERT JUMPDEST PUSH1 0x0 DUP1 DUP3 MLOAD PUSH1 0x20 DUP5 ADD DUP6 PUSH2 0x2710 GAS SUB DELEGATECALL RETURNDATASIZE PUSH1 0x40 MLOAD DUP2 PUSH1 0x0 DUP3 RETURNDATACOPY DUP3 PUSH1 0x0 DUP2 EQ PUSH2 0x276 JUMPI DUP3 DUP3 RETURN JUMPDEST DUP3 DUP3 REVERT JUMPDEST PUSH2 0x2A8 CALLER PUSH1 0x0 CALLDATALOAD PUSH32 0xFFFFFFFF00000000000000000000000000000000000000000000000000000000 AND PUSH2 0x5D7 JUMP JUMPDEST PUSH2 0x2E7 JUMPI PUSH1 0x40 MLOAD PUSH32 0x8C379A000000000000000000000000000000000000000000000000000000000 DUP2 MSTORE PUSH1 0x4 ADD PUSH2 0x2DE SWAP1 PUSH2 0xA21 JUMP JUMPDEST PUSH1 0x40 MLOAD DUP1 SWAP2 SUB SWAP1 REVERT JUMPDEST DUP1 PUSH1 0x1 PUSH1 0x0 PUSH2 0x100 EXP DUP2 SLOAD DUP2 PUSH20 0xFFFFFFFFFFFFFFFFFFFFFFFFFFFFFFFFFFFFFFFF MUL NOT AND SWAP1 DUP4 PUSH20 0xFFFFFFFFFFFFFFFFFFFFFFFFFFFFFFFFFFFFFFFF AND MUL OR SWAP1 SSTORE POP PUSH1 0x1 PUSH1 0x0 SWAP1 SLOAD SWAP1 PUSH2 0x100 EXP SWAP1 DIV PUSH20 0xFFFFFFFFFFFFFFFFFFFFFFFFFFFFFFFFFFFFFFFF AND PUSH20 0xFFFFFFFFFFFFFFFFFFFFFFFFFFFFFFFFFFFFFFFF AND PUSH32 0xCE241D7CA1F669FEE44B6FC00B8EBA2DF3BB514EED0F6F668F8F89096E81ED94 PUSH1 0x40 MLOAD PUSH1 0x40 MLOAD DUP1 SWAP2 SUB SWAP1 LOG2 POP JUMP JUMPDEST PUSH2 0x3BE CALLER PUSH1 0x0 CALLDATALOAD PUSH32 0xFFFFFFFF00000000000000000000000000000000000000000000000000000000 AND PUSH2 0x5D7 JUMP JUMPDEST PUSH2 0x3FD JUMPI PUSH1 0x40 MLOAD PUSH32 0x8C379A000000000000000000000000000000000000000000000000000000000 DUP2 MSTORE PUSH1 0x4 ADD PUSH2 0x3F4 SWAP1 PUSH2 0xA21 JUMP JUMPDEST PUSH1 0x40 MLOAD DUP1 SWAP2 SUB SWAP1 REVERT JUMPDEST DUP1 PUSH1 0x2 PUSH1 0x0 PUSH2 0x100 EXP DUP2 SLOAD DUP2 PUSH20 0xFFFFFFFFFFFFFFFFFFFFFFFFFFFFFFFFFFFFFFFF MUL NOT AND SWAP1 DUP4 PUSH20 0xFFFFFFFFFFFFFFFFFFFFFFFFFFFFFFFFFFFFFFFF AND MUL OR SWAP1 SSTORE POP POP JUMP JUMPDEST PUSH2 0x46F CALLER PUSH1 0x0 CALLDATALOAD PUSH32 0xFFFFFFFF00000000000000000000000000000000000000000000000000000000 AND PUSH2 0x5D7 JUMP JUMPDEST PUSH2 0x4AE JUMPI PUSH1 0x40 MLOAD PUSH32 0x8C379A000000000000000000000000000000000000000000000000000000000 DUP2 MSTORE PUSH1 0x4 ADD PUSH2 0x4A5 SWAP1 PUSH2 0xA21 JUMP JUMPDEST PUSH1 0x40 MLOAD DUP1 SWAP2 SUB SWAP1 REVERT JUMPDEST DUP1 PUSH1 0x0 DUP1 PUSH2 0x100 EXP DUP2 SLOAD DUP2 PUSH20 0xFFFFFFFFFFFFFFFFFFFFFFFFFFFFFFFFFFFFFFFF MUL NOT AND SWAP1 DUP4 PUSH20 0xFFFFFFFFFFFFFFFFFFFFFFFFFFFFFFFFFFFFFFFF AND MUL OR SWAP1 SSTORE POP PUSH1 0x0 DUP1 SLOAD SWAP1 PUSH2 0x100 EXP SWAP1 DIV PUSH20 0xFFFFFFFFFFFFFFFFFFFFFFFFFFFFFFFFFFFFFFFF AND PUSH20 0xFFFFFFFFFFFFFFFFFFFFFFFFFFFFFFFFFFFFFFFF AND PUSH32 0x1ABEBEA81BFA2637F28358C371278FB15EDE7EA8DD28D2E03B112FF6D936ADA4 PUSH1 0x40 MLOAD PUSH1 0x40 MLOAD DUP1 SWAP2 SUB SWAP1 LOG2 POP JUMP JUMPDEST PUSH1 0x1 PUSH1 0x0 SWAP1 SLOAD SWAP1 PUSH2 0x100 EXP SWAP1 DIV PUSH20 0xFFFFFFFFFFFFFFFFFFFFFFFFFFFFFFFFFFFFFFFF AND DUP2 JUMP JUMPDEST PUSH1 0x0 DUP1 SLOAD SWAP1 PUSH2 0x100 EXP SWAP1 DIV PUSH20 0xFFFFFFFFFFFFFFFFFFFFFFFFFFFFFFFFFFFFFFFF AND DUP2 JUMP JUMPDEST PUSH1 0x2 PUSH1 0x0 SWAP1 SLOAD SWAP1 PUSH2 0x100 EXP SWAP1 DIV PUSH20 0xFFFFFFFFFFFFFFFFFFFFFFFFFFFFFFFFFFFFFFFF AND DUP2 JUMP JUMPDEST PUSH1 0x0 DUP1 DUP3 EXTCODESIZE SWAP1 POP PUSH1 0x0 DUP2 GT SWAP2 POP POP SWAP2 SWAP1 POP JUMP JUMPDEST PUSH1 0x0 ADDRESS PUSH20 0xFFFFFFFFFFFFFFFFFFFFFFFFFFFFFFFFFFFFFFFF AND DUP4 PUSH20 0xFFFFFFFFFFFFFFFFFFFFFFFFFFFFFFFFFFFFFFFF AND SUB PUSH2 0x615 JUMPI PUSH1 0x1 SWAP1 POP PUSH2 0x771 JUMP JUMPDEST PUSH1 0x1 PUSH1 0x0 SWAP1 SLOAD SWAP1 PUSH2 0x100 EXP SWAP1 DIV PUSH20 0xFFFFFFFFFFFFFFFFFFFFFFFFFFFFFFFFFFFFFFFF AND PUSH20 0xFFFFFFFFFFFFFFFFFFFFFFFFFFFFFFFFFFFFFFFF AND DUP4 PUSH20 0xFFFFFFFFFFFFFFFFFFFFFFFFFFFFFFFFFFFFFFFF AND SUB PUSH2 0x673 JUMPI PUSH1 0x1 SWAP1 POP PUSH2 0x771 JUMP JUMPDEST PUSH1 0x0 PUSH20 0xFFFFFFFFFFFFFFFFFFFFFFFFFFFFFFFFFFFFFFFF AND PUSH1 0x0 DUP1 SLOAD SWAP1 PUSH2 0x100 EXP SWAP1 DIV PUSH20 0xFFFFFFFFFFFFFFFFFFFFFFFFFFFFFFFFFFFFFFFF AND PUSH20 0xFFFFFFFFFFFFFFFFFFFFFFFFFFFFFFFFFFFFFFFF AND SUB PUSH2 0x6D0 JUMPI PUSH1 0x0 SWAP1 POP PUSH2 0x771 JUMP JUMPDEST PUSH1 0x0 DUP1 SLOAD SWAP1 PUSH2 0x100 EXP SWAP1 DIV PUSH20 0xFFFFFFFFFFFFFFFFFFFFFFFFFFFFFFFFFFFFFFFF AND PUSH20 0xFFFFFFFFFFFFFFFFFFFFFFFFFFFFFFFFFFFFFFFF AND PUSH4 0xB7009613 DUP5 ADDRESS DUP6 PUSH1 0x40 MLOAD DUP5 PUSH4 0xFFFFFFFF AND PUSH1 0xE0 SHL DUP2 MSTORE PUSH1 0x4 ADD PUSH2 0x72D SWAP4 SWAP3 SWAP2 SWAP1 PUSH2 0xA7C JUMP JUMPDEST PUSH1 0x20 PUSH1 0x40 MLOAD DUP1 DUP4 SUB DUP2 DUP7 GAS STATICCALL ISZERO DUP1 ISZERO PUSH2 0x74A JUMPI RETURNDATASIZE PUSH1 0x0 DUP1 RETURNDATACOPY RETURNDATASIZE PUSH1 0x0 REVERT JUMPDEST POP POP POP POP PUSH1 0x40 MLOAD RETURNDATASIZE PUSH1 0x1F NOT PUSH1 0x1F DUP3 ADD AND DUP3 ADD DUP1 PUSH1 0x40 MSTORE POP DUP2 ADD SWAP1 PUSH2 0x76E SWAP2 SWAP1 PUSH2 0xAEB JUMP JUMPDEST SWAP1 POP JUMPDEST SWAP3 SWAP2 POP POP JUMP JUMPDEST PUSH1 0x0 PUSH20 0xFFFFFFFFFFFFFFFFFFFFFFFFFFFFFFFFFFFFFFFF DUP3 AND SWAP1 POP SWAP2 SWAP1 POP JUMP JUMPDEST PUSH1 0x0 PUSH2 0x7A2 DUP3 PUSH2 0x777 JUMP JUMPDEST SWAP1 POP SWAP2 SWAP1 POP JUMP JUMPDEST PUSH2 0x7B2 DUP2 PUSH2 0x797 JUMP JUMPDEST DUP3 MSTORE POP POP JUMP JUMPDEST PUSH1 0x0 DUP2 SWAP1 POP SWAP2 SWAP1 POP JUMP JUMPDEST PUSH2 0x7CB DUP2 PUSH2 0x7B8 JUMP JUMPDEST DUP3 MSTORE POP POP JUMP JUMPDEST PUSH1 0x0 PUSH1 0x40 DUP3 ADD SWAP1 POP PUSH2 0x7E6 PUSH1 0x0 DUP4 ADD DUP6 PUSH2 0x7A9 JUMP JUMPDEST PUSH2 0x7F3 PUSH1 0x20 DUP4 ADD DUP5 PUSH2 0x7C2 JUMP JUMPDEST SWAP4 SWAP3 POP POP POP JUMP JUMPDEST PUSH1 0x0 DUP1 REVERT JUMPDEST PUSH2 0x808 DUP2 PUSH2 0x797 JUMP JUMPDEST DUP2 EQ PUSH2 0x813 JUMPI PUSH1 0x0 DUP1 REVERT JUMPDEST POP JUMP JUMPDEST PUSH1 0x0 DUP2 CALLDATALOAD SWAP1 POP PUSH2 0x825 DUP2 PUSH2 0x7FF JUMP JUMPDEST SWAP3 SWAP2 POP POP JUMP JUMPDEST PUSH1 0x0 PUSH1 0x20 DUP3 DUP5 SUB SLT ISZERO PUSH2 0x841 JUMPI PUSH2 0x840 PUSH2 0x7FA JUMP JUMPDEST JUMPDEST PUSH1 0x0 PUSH2 0x84F DUP5 DUP3 DUP6 ADD PUSH2 0x816 JUMP JUMPDEST SWAP2 POP POP SWAP3 SWAP2 POP POP JUMP JUMPDEST PUSH1 0x0 PUSH2 0x863 DUP3 PUSH2 0x797 JUMP JUMPDEST SWAP1 POP SWAP2 SWAP1 POP JUMP JUMPDEST PUSH2 0x873 DUP2 PUSH2 0x858 JUMP JUMPDEST DUP2 EQ PUSH2 0x87E JUMPI PUSH1 0x0 DUP1 REVERT JUMPDEST POP JUMP JUMPDEST PUSH1 0x0 DUP2 CALLDATALOAD SWAP1 POP PUSH2 0x890 DUP2 PUSH2 0x86A JUMP JUMPDEST SWAP3 SWAP2 POP POP JUMP JUMPDEST PUSH1 0x0 PUSH1 0x20 DUP3 DUP5 SUB SLT ISZERO PUSH2 0x8AC JUMPI PUSH2 0x8AB PUSH2 0x7FA JUMP JUMPDEST JUMPDEST PUSH1 0x0 PUSH2 0x8BA DUP5 DUP3 DUP6 ADD PUSH2 0x881 JUMP JUMPDEST SWAP2 POP POP SWAP3 SWAP2 POP POP JUMP JUMPDEST PUSH1 0x0 PUSH1 0x20 DUP3 ADD SWAP1 POP PUSH2 0x8D8 PUSH1 0x0 DUP4 ADD DUP5 PUSH2 0x7A9 JUMP JUMPDEST SWAP3 SWAP2 POP POP JUMP JUMPDEST PUSH1 0x0 DUP2 SWAP1 POP SWAP2 SWAP1 POP JUMP JUMPDEST PUSH1 0x0 PUSH2 0x903 PUSH2 0x8FE PUSH2 0x8F9 DUP5 PUSH2 0x777 JUMP JUMPDEST PUSH2 0x8DE JUMP JUMPDEST PUSH2 0x777 JUMP JUMPDEST SWAP1 POP SWAP2 SWAP1 POP JUMP JUMPDEST PUSH1 0x0 PUSH2 0x915 DUP3 PUSH2 0x8E8 JUMP JUMPDEST SWAP1 POP SWAP2 SWAP1 POP JUMP JUMPDEST PUSH1 0x0 PUSH2 0x927 DUP3 PUSH2 0x90A JUMP JUMPDEST SWAP1 POP SWAP2 SWAP1 POP JUMP JUMPDEST PUSH2 0x937 DUP2 PUSH2 0x91C JUMP JUMPDEST DUP3 MSTORE POP POP JUMP JUMPDEST PUSH1 0x0 PUSH1 0x20 DUP3 ADD SWAP1 POP PUSH2 0x952 PUSH1 0x0 DUP4 ADD DUP5 PUSH2 0x92E JUMP JUMPDEST SWAP3 SWAP2 POP POP JUMP JUMPDEST PUSH1 0x0 DUP3 DUP3 MSTORE PUSH1 0x20 DUP3 ADD SWAP1 POP SWAP3 SWAP2 POP POP JUMP JUMPDEST PUSH32 0x647374206973206E6F7420636F6E747261637400000000000000000000000000 PUSH1 0x0 DUP3 ADD MSTORE POP JUMP JUMPDEST PUSH1 0x0 PUSH2 0x99F PUSH1 0x13 DUP4 PUSH2 0x958 JUMP JUMPDEST SWAP2 POP PUSH2 0x9AA DUP3 PUSH2 0x969 JUMP JUMPDEST PUSH1 0x20 DUP3 ADD SWAP1 POP SWAP2 SWAP1 POP JUMP JUMPDEST PUSH1 0x0 PUSH1 0x20 DUP3 ADD SWAP1 POP DUP2 DUP2 SUB PUSH1 0x0 DUP4 ADD MSTORE PUSH2 0x9CE DUP2 PUSH2 0x992 JUMP JUMPDEST SWAP1 POP SWAP2 SWAP1 POP JUMP JUMPDEST PUSH32 0x64732D617574682D756E617574686F72697A6564000000000000000000000000 PUSH1 0x0 DUP3 ADD MSTORE POP JUMP JUMPDEST PUSH1 0x0 PUSH2 0xA0B PUSH1 0x14 DUP4 PUSH2 0x958 JUMP JUMPDEST SWAP2 POP PUSH2 0xA16 DUP3 PUSH2 0x9D5 JUMP JUMPDEST PUSH1 0x20 DUP3 ADD SWAP1 POP SWAP2 SWAP1 POP JUMP JUMPDEST PUSH1 0x0 PUSH1 0x20 DUP3 ADD SWAP1 POP DUP2 DUP2 SUB PUSH1 0x0 DUP4 ADD MSTORE PUSH2 0xA3A DUP2 PUSH2 0x9FE JUMP JUMPDEST SWAP1 POP SWAP2 SWAP1 POP JUMP JUMPDEST PUSH1 0x0 PUSH32 0xFFFFFFFF00000000000000000000000000000000000000000000000000000000 DUP3 AND SWAP1 POP SWAP2 SWAP1 POP JUMP JUMPDEST PUSH2 0xA76 DUP2 PUSH2 0xA41 JUMP JUMPDEST DUP3 MSTORE POP POP JUMP JUMPDEST PUSH1 0x0 PUSH1 0x60 DUP3 ADD SWAP1 POP PUSH2 0xA91 PUSH1 0x0 DUP4 ADD DUP7 PUSH2 0x7A9 JUMP JUMPDEST PUSH2 0xA9E PUSH1 0x20 DUP4 ADD DUP6 PUSH2 0x7A9 JUMP JUMPDEST PUSH2 0xAAB PUSH1 0x40 DUP4 ADD DUP5 PUSH2 0xA6D JUMP JUMPDEST SWAP5 SWAP4 POP POP POP POP JUMP JUMPDEST PUSH1 0x0 DUP2 ISZERO ISZERO SWAP1 POP SWAP2 SWAP1 POP JUMP JUMPDEST PUSH2 0xAC8 DUP2 PUSH2 0xAB3 JUMP JUMPDEST DUP2 EQ PUSH2 0xAD3 JUMPI PUSH1 0x0 DUP1 REVERT JUMPDEST POP JUMP JUMPDEST PUSH1 0x0 DUP2 MLOAD SWAP1 POP PUSH2 0xAE5 DUP2 PUSH2 0xABF JUMP JUMPDEST SWAP3 SWAP2 POP POP JUMP JUMPDEST PUSH1 0x0 PUSH1 0x20 DUP3 DUP5 SUB SLT ISZERO PUSH2 0xB01 JUMPI PUSH2 0xB00 PUSH2 0x7FA JUMP JUMPDEST JUMPDEST PUSH1 0x0 PUSH2 0xB0F DUP5 DUP3 DUP6 ADD PUSH2 0xAD6 JUMP JUMPDEST SWAP2 POP POP SWAP3 SWAP2 POP POP JUMP INVALID LOG2 PUSH5 0x6970667358 0x22 SLT KECCAK256 0xC0 0xB2 0xE2 DUP5 SWAP15 SWAP13 SWAP16 MULMOD GAS CALLDATACOPY 0xD2 0xF6 PC 0xFC PUSH13 0xC4E8B7299FB15A73816390D7FA SWAP4 0x2E 0x29 0xA6 PUSH5 0x736F6C6343 STOP ADDMOD SLT STOP CALLER LOG2 PUSH5 0x6970667358 0x22 SLT KECCAK256 PUSH10 0x54419283E78F838B44F8 0xDF MSTORE8 RETURNDATASIZE PUSH8 0x4A958B35EADA7497 SHL DUP1 0xD3 0xD0 NUMBER 0xCE 0xE8 BYTE PUSH9 0x64736F6C6343000812 STOP CALLER "
		},
		"gasEstimates": {
			"creation": {
				"codeDepositCost": "2438000",
				"executionCost": "30183",
				"totalCost": "2468183"
			},
			"external": {
				"addCandidate(address,address,bytes)": "infinite",
				"authority()": "infinite",
				"createDemand(address,(((uint8,address),uint256),uint256),bytes)": "infinite",
				"createDemandTest(address,uint256,bytes)": "infinite",
				"demandProxyTarget()": "2624",
				"emitCandidateAdded(address,address,bytes)": "infinite",
				"emitFundsAdded(address,address,bytes32,(((uint8,address),uint256),uint256))": "infinite",
				"endDemand(address,address,(((uint8,address),uint256),uint256))": "infinite",
				"endDemandTest(address,address,uint256)": "infinite",
				"getDeposit(address,bytes32)": "infinite",
				"initialize(address)": "infinite",
				"isDemandMap(address)": "2913",
				"owner()": "2559",
				"receiveApproval(address,uint256,address,bytes)": "infinite",
				"setAuthority(address)": "infinite",
				"setDemandProxyTarget(address)": "infinite",
				"setOwner(address)": "infinite"
			},
			"internal": {
				"timestamp()": "22"
			}
		},
		"methodIdentifiers": {
			"addCandidate(address,address,bytes)": "5f564682",
			"authority()": "bf7e214f",
			"createDemand(address,(((uint8,address),uint256),uint256),bytes)": "80eb6de6",
			"createDemandTest(address,uint256,bytes)": "bd9c6d55",
			"demandProxyTarget()": "cade88f8",
			"emitCandidateAdded(address,address,bytes)": "c6d0ff0f",
			"emitFundsAdded(address,address,bytes32,(((uint8,address),uint256),uint256))": "37895713",
			"endDemand(address,address,(((uint8,address),uint256),uint256))": "6ae7f94f",
			"endDemandTest(address,address,uint256)": "2e419333",
			"getDeposit(address,bytes32)": "1485d297",
			"initialize(address)": "c4d66de8",
			"isDemandMap(address)": "2c56ef59",
			"owner()": "8da5cb5b",
			"receiveApproval(address,uint256,address,bytes)": "8f4ffcb1",
			"setAuthority(address)": "7a9e5e4b",
			"setDemandProxyTarget(address)": "b6bb39b8",
			"setOwner(address)": "13af4035"
		}
	},
	"abi": [
		{
			"anonymous": false,
			"inputs": [
				{
					"indexed": true,
					"internalType": "address",
					"name": "demand",
					"type": "address"
				},
				{
					"indexed": true,
					"internalType": "address",
					"name": "candidate",
					"type": "address"
				},
				{
					"indexed": false,
					"internalType": "bytes",
					"name": "ipfsData",
					"type": "bytes"
				},
				{
					"indexed": false,
					"internalType": "uint256",
					"name": "timestamp",
					"type": "uint256"
				}
			],
			"name": "CandidateAdded",
			"type": "event"
		},
		{
			"anonymous": false,
			"inputs": [
				{
					"indexed": true,
					"internalType": "address",
					"name": "newDemand",
					"type": "address"
				},
				{
					"indexed": true,
					"internalType": "address",
					"name": "creater",
					"type": "address"
				},
				{
					"components": [
						{
							"components": [
								{
									"components": [
										{
											"internalType": "enum CCCStructs.TokenType",
											"name": "tokenType",
											"type": "uint8"
										},
										{
											"internalType": "address",
											"name": "tokenAddress",
											"type": "address"
										}
									],
									"internalType": "struct CCCStructs.TokenContract",
									"name": "tokenContract",
									"type": "tuple"
								},
								{
									"internalType": "uint256",
									"name": "tokenId",
									"type": "uint256"
								}
							],
							"internalType": "struct CCCStructs.Token",
							"name": "token",
							"type": "tuple"
						},
						{
							"internalType": "uint256",
							"name": "value",
							"type": "uint256"
						}
					],
					"indexed": false,
					"internalType": "struct CCCStructs.TokenValue",
					"name": "offeredValue",
					"type": "tuple"
				},
				{
					"indexed": false,
					"internalType": "bytes",
					"name": "ipfsData",
					"type": "bytes"
				},
				{
					"indexed": false,
					"internalType": "uint256",
					"name": "timestamp",
					"type": "uint256"
				},
				{
					"indexed": false,
					"internalType": "uint256",
					"name": "demandVersion",
					"type": "uint256"
				}
			],
			"name": "DemandCreated",
			"type": "event"
		},
		{
			"anonymous": false,
			"inputs": [
				{
					"indexed": true,
					"internalType": "address",
					"name": "demand",
					"type": "address"
				},
				{
					"components": [
						{
							"components": [
								{
									"components": [
										{
											"internalType": "enum CCCStructs.TokenType",
											"name": "tokenType",
											"type": "uint8"
										},
										{
											"internalType": "address",
											"name": "tokenAddress",
											"type": "address"
										}
									],
									"internalType": "struct CCCStructs.TokenContract",
									"name": "tokenContract",
									"type": "tuple"
								},
								{
									"internalType": "uint256",
									"name": "tokenId",
									"type": "uint256"
								}
							],
							"internalType": "struct CCCStructs.Token",
							"name": "token",
							"type": "tuple"
						},
						{
							"internalType": "uint256",
							"name": "value",
							"type": "uint256"
						}
					],
					"indexed": false,
					"internalType": "struct CCCStructs.TokenValue",
					"name": "offeredValue",
					"type": "tuple"
				},
				{
					"indexed": false,
					"internalType": "uint256",
					"name": "timestamp",
					"type": "uint256"
				}
			],
			"name": "DemandEnded",
			"type": "event"
		},
		{
			"anonymous": false,
			"inputs": [
				{
					"indexed": true,
					"internalType": "address",
					"name": "demand",
					"type": "address"
				},
				{
					"indexed": true,
					"internalType": "address",
					"name": "funder",
					"type": "address"
				},
				{
					"indexed": false,
					"internalType": "bytes32",
					"name": "depositId",
					"type": "bytes32"
				},
				{
					"components": [
						{
							"components": [
								{
									"components": [
										{
											"internalType": "enum CCCStructs.TokenType",
											"name": "tokenType",
											"type": "uint8"
										},
										{
											"internalType": "address",
											"name": "tokenAddress",
											"type": "address"
										}
									],
									"internalType": "struct CCCStructs.TokenContract",
									"name": "tokenContract",
									"type": "tuple"
								},
								{
									"internalType": "uint256",
									"name": "tokenId",
									"type": "uint256"
								}
							],
							"internalType": "struct CCCStructs.Token",
							"name": "token",
							"type": "tuple"
						},
						{
							"internalType": "uint256",
							"name": "value",
							"type": "uint256"
						}
					],
					"indexed": false,
					"internalType": "struct CCCStructs.TokenValue",
					"name": "fundedValue",
					"type": "tuple"
				},
				{
					"indexed": false,
					"internalType": "uint256",
					"name": "timestamp",
					"type": "uint256"
				}
			],
			"name": "FundsAdded",
			"type": "event"
		},
		{
			"anonymous": false,
			"inputs": [
				{
					"indexed": true,
					"internalType": "address",
					"name": "authority",
					"type": "address"
				}
			],
			"name": "LogSetAuthority",
			"type": "event"
		},
		{
			"anonymous": false,
			"inputs": [
				{
					"indexed": true,
					"internalType": "address",
					"name": "owner",
					"type": "address"
				}
			],
			"name": "LogSetOwner",
			"type": "event"
		},
		{
			"inputs": [
				{
					"internalType": "address",
					"name": "_demandAddress",
					"type": "address"
				},
				{
					"internalType": "address",
					"name": "_candidate",
					"type": "address"
				},
				{
					"internalType": "bytes",
					"name": "_ipfsData",
					"type": "bytes"
				}
			],
			"name": "addCandidate",
			"outputs": [],
			"stateMutability": "nonpayable",
			"type": "function"
		},
		{
			"inputs": [],
			"name": "authority",
			"outputs": [
				{
					"internalType": "contract DSAuthority",
					"name": "",
					"type": "address"
				}
			],
			"stateMutability": "view",
			"type": "function"
		},
		{
			"inputs": [
				{
					"internalType": "address",
					"name": "_creator",
					"type": "address"
				},
				{
					"components": [
						{
							"components": [
								{
									"components": [
										{
											"internalType": "enum CCCStructs.TokenType",
											"name": "tokenType",
											"type": "uint8"
										},
										{
											"internalType": "address",
											"name": "tokenAddress",
											"type": "address"
										}
									],
									"internalType": "struct CCCStructs.TokenContract",
									"name": "tokenContract",
									"type": "tuple"
								},
								{
									"internalType": "uint256",
									"name": "tokenId",
									"type": "uint256"
								}
							],
							"internalType": "struct CCCStructs.Token",
							"name": "token",
							"type": "tuple"
						},
						{
							"internalType": "uint256",
							"name": "value",
							"type": "uint256"
						}
					],
					"internalType": "struct CCCStructs.TokenValue",
					"name": "_offeredValue",
					"type": "tuple"
				},
				{
					"internalType": "bytes",
					"name": "_ipfsData",
					"type": "bytes"
				}
			],
			"name": "createDemand",
			"outputs": [],
			"stateMutability": "payable",
			"type": "function"
		},
		{
			"inputs": [
				{
					"internalType": "address",
					"name": "_creator",
					"type": "address"
				},
				{
					"internalType": "uint256",
					"name": "totalAmount",
					"type": "uint256"
				},
				{
					"internalType": "bytes",
					"name": "_ipfsData",
					"type": "bytes"
				}
			],
			"name": "createDemandTest",
			"outputs": [],
			"stateMutability": "payable",
			"type": "function"
		},
		{
			"inputs": [],
			"name": "demandProxyTarget",
			"outputs": [
				{
					"internalType": "address",
					"name": "",
					"type": "address"
				}
			],
			"stateMutability": "view",
			"type": "function"
		},
		{
			"inputs": [
				{
					"internalType": "address",
					"name": "_demand",
					"type": "address"
				},
				{
					"internalType": "address",
					"name": "_candidate",
					"type": "address"
				},
				{
					"internalType": "bytes",
					"name": "_ipfsData",
					"type": "bytes"
				}
			],
			"name": "emitCandidateAdded",
			"outputs": [],
			"stateMutability": "nonpayable",
			"type": "function"
		},
		{
			"inputs": [
				{
					"internalType": "address",
					"name": "_demand",
					"type": "address"
				},
				{
					"internalType": "address",
					"name": "_funder",
					"type": "address"
				},
				{
					"internalType": "bytes32",
					"name": "depositId",
					"type": "bytes32"
				},
				{
					"components": [
						{
							"components": [
								{
									"components": [
										{
											"internalType": "enum CCCStructs.TokenType",
											"name": "tokenType",
											"type": "uint8"
										},
										{
											"internalType": "address",
											"name": "tokenAddress",
											"type": "address"
										}
									],
									"internalType": "struct CCCStructs.TokenContract",
									"name": "tokenContract",
									"type": "tuple"
								},
								{
									"internalType": "uint256",
									"name": "tokenId",
									"type": "uint256"
								}
							],
							"internalType": "struct CCCStructs.Token",
							"name": "token",
							"type": "tuple"
						},
						{
							"internalType": "uint256",
							"name": "value",
							"type": "uint256"
						}
					],
					"internalType": "struct CCCStructs.TokenValue",
					"name": "_fundedValue",
					"type": "tuple"
				}
			],
			"name": "emitFundsAdded",
			"outputs": [],
			"stateMutability": "nonpayable",
			"type": "function"
		},
		{
			"inputs": [
				{
					"internalType": "address",
					"name": "_demandAddress",
					"type": "address"
				},
				{
					"internalType": "address",
					"name": "_receiver",
					"type": "address"
				},
				{
					"components": [
						{
							"components": [
								{
									"components": [
										{
											"internalType": "enum CCCStructs.TokenType",
											"name": "tokenType",
											"type": "uint8"
										},
										{
											"internalType": "address",
											"name": "tokenAddress",
											"type": "address"
										}
									],
									"internalType": "struct CCCStructs.TokenContract",
									"name": "tokenContract",
									"type": "tuple"
								},
								{
									"internalType": "uint256",
									"name": "tokenId",
									"type": "uint256"
								}
							],
							"internalType": "struct CCCStructs.Token",
							"name": "token",
							"type": "tuple"
						},
						{
							"internalType": "uint256",
							"name": "value",
							"type": "uint256"
						}
					],
					"internalType": "struct CCCStructs.TokenValue",
					"name": "_offeredValue",
					"type": "tuple"
				}
			],
			"name": "endDemand",
			"outputs": [],
			"stateMutability": "nonpayable",
			"type": "function"
		},
		{
			"inputs": [
				{
					"internalType": "address",
					"name": "_demandAddress",
					"type": "address"
				},
				{
					"internalType": "address",
					"name": "_creator",
					"type": "address"
				},
				{
					"internalType": "uint256",
					"name": "totalAmount",
					"type": "uint256"
				}
			],
			"name": "endDemandTest",
			"outputs": [],
			"stateMutability": "nonpayable",
			"type": "function"
		},
		{
			"inputs": [
				{
					"internalType": "address",
					"name": "_demand",
					"type": "address"
				},
				{
					"internalType": "bytes32",
					"name": "depositId",
					"type": "bytes32"
				}
			],
			"name": "getDeposit",
			"outputs": [
				{
					"components": [
						{
							"internalType": "address",
							"name": "depositor",
							"type": "address"
						},
						{
							"components": [
								{
									"components": [
										{
											"components": [
												{
													"internalType": "enum CCCStructs.TokenType",
													"name": "tokenType",
													"type": "uint8"
												},
												{
													"internalType": "address",
													"name": "tokenAddress",
													"type": "address"
												}
											],
											"internalType": "struct CCCStructs.TokenContract",
											"name": "tokenContract",
											"type": "tuple"
										},
										{
											"internalType": "uint256",
											"name": "tokenId",
											"type": "uint256"
										}
									],
									"internalType": "struct CCCStructs.Token",
									"name": "token",
									"type": "tuple"
								},
								{
									"internalType": "uint256",
									"name": "value",
									"type": "uint256"
								}
							],
							"internalType": "struct CCCStructs.TokenValue",
							"name": "tokenValue",
							"type": "tuple"
						}
					],
					"internalType": "struct Demand.Deposit",
					"name": "",
					"type": "tuple"
				}
			],
			"stateMutability": "view",
			"type": "function"
		},
		{
			"inputs": [
				{
					"internalType": "address",
					"name": "_demandProxyTarget",
					"type": "address"
				}
			],
			"name": "initialize",
			"outputs": [],
			"stateMutability": "nonpayable",
			"type": "function"
		},
		{
			"inputs": [
				{
					"internalType": "address",
					"name": "",
					"type": "address"
				}
			],
			"name": "isDemandMap",
			"outputs": [
				{
					"internalType": "bool",
					"name": "",
					"type": "bool"
				}
			],
			"stateMutability": "view",
			"type": "function"
		},
		{
			"inputs": [],
			"name": "owner",
			"outputs": [
				{
					"internalType": "address",
					"name": "",
					"type": "address"
				}
			],
			"stateMutability": "view",
			"type": "function"
		},
		{
			"inputs": [
				{
					"internalType": "address",
					"name": "_from",
					"type": "address"
				},
				{
					"internalType": "uint256",
					"name": "_amount",
					"type": "uint256"
				},
				{
					"internalType": "address",
					"name": "_token",
					"type": "address"
				},
				{
					"internalType": "bytes",
					"name": "_data",
					"type": "bytes"
				}
			],
			"name": "receiveApproval",
			"outputs": [],
			"stateMutability": "nonpayable",
			"type": "function"
		},
		{
			"inputs": [
				{
					"internalType": "contract DSAuthority",
					"name": "authority_",
					"type": "address"
				}
			],
			"name": "setAuthority",
			"outputs": [],
			"stateMutability": "nonpayable",
			"type": "function"
		},
		{
			"inputs": [
				{
					"internalType": "address",
					"name": "_newDemandProxyTarget",
					"type": "address"
				}
			],
			"name": "setDemandProxyTarget",
			"outputs": [],
			"stateMutability": "nonpayable",
			"type": "function"
		},
		{
			"inputs": [
				{
					"internalType": "address",
					"name": "owner_",
					"type": "address"
				}
			],
			"name": "setOwner",
			"outputs": [],
			"stateMutability": "nonpayable",
			"type": "function"
		}
	]
}